:020000040800F2
:10000000D06E0120350200083D020008C51100082D
:1000100041020008430200084502000800000000F9
:10002000000000000000000000000000F1130008C4
:100030004902000800000000411200081D150008D8
:100040004F0200084F0200084F0200084F0200084C
:100050004F0200084F0200084F0200084F0200083C
:100060004F0200084F0200084F0200084F0200082C
:100070004F0200084F0200084F0200084F0200081C
:100080004F0200084F0200084F02000889070008CD
:10009000790700084F0200084F0200084F020008CD
:1000A0004F0200084F0200084F0200084F020008EC
:1000B0004F0200084F0200084F0200084F020008DC
:1000C0004F0200084F0200084F0200084F020008CC
:1000D0004F020008091A00085D1B0008B91C00083F
:1000E0004F0200084F0200084F0200084F020008AC
:1000F0004F0200084F0200084F0200084F0200089C
:100100004F0200084F0200084F0200084F0200088B
:10011000A5170008111900084F0200084F02000837
:100120004F0200084F0200084F0200084F0200086B
:100130004F0200084F0200084F0200084D08000857
:100140003D0800084F0200084F0200084F02000857
:100150004F0200084F0200084F020008111E00085D
:100160004F0200084F0200084F0200084F0200082B
:100170004F0200084F0200084F0200084F0200081B
:100180004F0200084F02000800F002F800F042F8A9
:100190000AA090E8000C82448344AAF10107DA45E2
:1001A00001D100F037F8AFF2090EBAE80F0013F0F2
:1001B000010F18BFFB1A43F001031847A46A00009F
:1001C000C46A0000103A24BF78C878C1FAD8520730
:1001D00024BF30C830C144BF04680C6070470000C1
:1001E0000023002400250026103A28BF78C1FBD840
:1001F000520728BF30C148BF0B6070471FB506F0DB
:1002000096FB9DE8030000F08BF900F0CDF81FBDD0
:1002100010B510BD00F0BFF91146FFF7EFFF04F075
:10022000B7FE00F0F7F903B4FFF7F2FF03BC00F0EC
:1002300055F900000948804709480047FEE7FEE7F6
:10024000FEE7FEE7FEE7FEE7FEE7FEE7FEE7FEE786
:1002500004480549054A064B70470000251500086B
:1002600089010008D04A0120D06E0120D06A012007
:10027000D06A0120032A40F2308010F0030C00F015
:10028000158011F8013BBCF1020F624498BF11F8D0
:1002900001CB00F8013B38BF11F8013BA2F1040289
:1002A00098BF00F801CB38BF00F8013B11F0030301
:1002B00000F0E280083AC0F0088051F8043B083AA8
:1002C00051F804CBA0E80810F5E7121D5CBF51F807
:1002D000043B40F8043BAFF30080D20724BF11F881
:1002E000013B11F801CB48BF11F8012B24BF00F8E6
:1002F000013B00F801CB48BF00F8012B704702F02A
:10030000FF0343EA032242EA024200F024B84FF01E
:1003100000020429C0F0128010F0030C00F01B80D2
:10032000CCF1040CBCF1020F18BF00F8012BA8BFE0
:1003300020F8022BA1EB0C0100F00DB85FEAC17CA4
:1003400024BF00F8012B00F8012B48BF00F8012B57
:1003500070474FF0000200B5134694469646203988
:1003600022BFA0E80C50A0E80C50B1F12001BFF46E
:10037000F7AF090728BFA0E80C5048BF0CC05DF8D4
:1003800004EB890028BF40F8042B08BF704748BF22
:1003900020F8022B11F0804F18BF00F8012B704796
:1003A000704770477047000070B5064C7C44064D9E
:1003B0007D4404E02046016808448047241DAC4287
:1003C000F8D170BDD0680000D068000070B5064656
:1003D00000F08AF8056806F10B0020F00704B4422B
:1003E0009CBF002070BD2B466A68BAB11068A0425D
:1003F00010D304F1080188423CBF5068586007D30D
:100400005168101941601168091B0160586014603F
:10041000101D70BD13465268002AE7D121462846B8
:1004200000F06AF80028DED170BD70B50446051FE3
:1004300000F05AF80068002C14BF446870BD002C0E
:1004400018BFAC423CBF20466468F8D301680A1864
:10045000AA4218BF456003D12A68054611440160CD
:1004600028684119A1421CBF6C6070BD6168696059
:1004700021680844286070BD10B5203AC0F00B8098
:10048000B1E81850A0E81850B1E81850A0E818508A
:10049000203ABFF4F5AF5FEA027C24BFB1E8185000
:1004A000A0E8185044BF18C918C0BDE810405FEA62
:1004B000827C24BF51F8043B40F8043B08BF7047DE
:1004C000D20728BF31F8023B48BF11F8012B28BFE3
:1004D00020F8023B48BF00F8012B70470149182063
:1004E000ABBEFEE72600020000487047180000205F
:1004F000704770477047704738B504460A46002079
:100500006946AFF30080002808BF38BD0246009955
:10051000204600F065F8012038BD012000F088B8C1
:10052000F8B5AFF30080054600200C46102000BF50
:100530000646A819A0420DD9324669460020AFF3FD
:100540000080070008BF00F073F80098A04218BFB1
:100550000546C419FFF7C8FF05600746F01D20F0E7
:1005600007004619284600F00AF8B44208BFF8BD53
:10057000A21B31463868BDE8F84000F031B80021D0
:100580000160C0E9011070471020704700487047B3
:100590001000002070477546FFF7F8FFAE460500D3
:1005A0006946534620F00700854618B020B5FFF78E
:1005B0004FFEBDE820404FF000064FF000074FF01F
:1005C00000084FF0000BAC46ACE8C009ACE8C0092D
:1005D000ACE8C009ACE8C00921F007018D467047BE
:1005E000034640688C46002818BF88423CBF03463B
:1005F0004068F8D318681844884207D00CF103000B
:1006000020F00700001D411A521A0146081D0A6019
:10061000FFF70BBF10B50446AFF300802046BDE8DE
:100620001040FFF700BE002801D0FFF757BF70470A
:1006300010B500F01DF8BDE81040FFF7F4BF70B52D
:1006400005460C460A2000E06D1C00F039F835B173
:1006500028780028F8D102E0641C00F031F814B1C9
:1006600020780028F8D1BDE870400A2000F028B8B2
:1006700010B5012805D0002103A0FFF7E0FF0120FD
:1006800010BD09A1F8E7000053494752544D454DAC
:100690003A204F7574206F662068656170206D6523
:1006A0006D6F7279000000003A2048656170206D1E
:1006B000656D6F727920636F727275707465640016
:1006C00008B569468DF800000320ABBE08BD0000E8
:1006D00070B58AB002200121022500F0FBFD4FF029
:1006E0000070012100F002FE40F20044C4F2020456
:1006F00020460821092200F04BFD2046092109224D
:1007000000F046FD4FF44070089008A920468DF88F
:10071000245000F0F9FC40F21450C0F2051007908C
:1007200007A800F051FDA4F5D034204600F0E6F80B
:1007300004AD284600F0AAFA4FF48070ADF81A0014
:100740004FF04270CDF8120003200026ADF81000E3
:1007500020462946CDF8166000F0C6F90020C0F208
:100760000110CDF80A006846CDE90066ADF80860D2
:1007700000F0D8F80AB070BD80B546F20040C4F26F
:10078000000001F089FC80BD7047000070B58AB0A0
:1007900002200121022500F09DFD4FF00070012193
:1007A00000F0A4FD4FF08060012100F09FFD40F2B9
:1007B0000044C4F2020420460621092200F0E8FCAD
:1007C00020460521092200F0E3FC6020089008A9DA
:1007D00020468DF8245000F097FC40F24050C0F2C3
:1007E0000510079007A800F0EFFCA4F5CE342046D2
:1007F00000F084F804AD284600F048FA4FF4807009
:10080000ADF81A004FF04270CDF812000320002618
:10081000ADF8100020462946CDF8166000F064F9C6
:100820000E20C0F20110CDF80A006846CDE900663E
:10083000ADF8086000F076F80AB070BD80B546F6F5
:100840000000C4F2000001F027FC80BD70470000EA
:10085000B1F5007F1ADA4A1E1F2A32D8DFE802F00B
:10086000104646394646463C464646464646464675
:100870004646464646464646464646464646463F1F
:1008800040F20111C0F2010181607047B1F5004FE3
:100890000CDAB1F5007F19D0B1F5806F16D0B1F543
:1008A000006F18BF7047002181610FE01AD0B1F5C9
:1008B000803F1CD0B1F5003F02BF1021416070475E
:1008C00014E0402916D0B1F5807F0FD1042141609A
:1008D00070470821C16070471021C160704708212E
:1008E0000161704700218161042141607047082146
:1008F00041607047102101617047000010B546F259
:100900000041C4F200014FF08064884208BF4FF0FC
:1009100000742046012100F0F5FC2046002100F083
:10092000F1FC10BDB0B546F20061C4F2000190F8D0
:100930000AE0037B0A68012442F001020A60CA69E6
:1009400004FA0EF56FEA050CAA43012BCA610DD01B
:10095000F3B9CA6802EA0C02CA60C288438843EA53
:10096000024201EBCE031A6403460AE0CA682A4336
:10097000CA600288438843EA024201EBCE031A644C
:10098000831D82881B8843EA024201EBCE035A642E
:10099000C27A4B68002A43EA050408BF03EA0C0444
:1009A0004C600389012B04D03BB94A6902EA0C036D
:1009B00002E04A6942EA05034B61407B012802D10B
:1009C000C8692843C861086820F001000860B0BD0C
:1009D00080B502464069084200F03380FF294FF09D
:1009E000000000F3308001393F2900F26580DFE824
:1009F00001F0204D634F636363516363636363631B
:100A000063536363636363636363636363636363C6
:100A100063586363636363636363636363636363B1
:100A20006363636363636363636363636363636396
:100A3000635A906840F20111C0F2010100F082F99E
:100A400080BD002080BDB1F5006F0ADBB1F5803FAD
:100A500015DAB1F5006F2BD0B1F5004F2CD15068ED
:100A600009E0B1F5807F28D0B1F5007F2AD0B1F53B
:100A7000806F21D19069042100F064F980BD26D0F7
:100A8000B1F5003F18BF80BD50680DE0D06804E0AC
:100A9000D0681DE0D06807E01069032100F052F92A
:100AA00080BD106914E01069102100F04BF980BD81
:100AB0009069702100F046F980BD9069012100F035
:100AC00041F980BD9069022100F03CF980BD506879
:100AD000082100F037F980BD002A42690CBF22EAE4
:100AE000010111434161704780B5026822F00202A2
:100AF0000260026842F0010202604FF6FF7200BF1E
:100B0000D0F804C0531E934203D21CF001021A46CF
:100B1000F6D04268D20704BF002080BD91F806C01D
:100B20000368BCF1010F23F0800208BF43F080028C
:100B3000026091F807C00368BCF1010F23F0400286
:100B400008BF43F04002026091F808C00368BCF19E
:100B5000010F23F0200208BF43F02002026091F849
:100B600009C00368BCF1010F23F0100208BF43F075
:100B70001002026091F80AC00368BCF1010F23F073
:100B8000080208BF43F00802026091F80BC0036836
:100B9000BCF1010F23F0040208BF43F0040202601D
:100BA000CB7891F802C00A791B0691F805E043EA78
:100BB0008C73098843EA024242EA0E52013911431A
:100BC000C161016821F0010101604FF6FF7100BFB2
:100BD00043684A1E8A4203D213F001011146F7D13D
:100BE0004068012121EA000080BD000010B500EB43
:100BF0000114D4F8B0C11CF004031372D4F8B0E1AE
:100C000004F5D87C19BF4FEADE0353604FEA5E5308
:100C10001360DCF80030002903F002035372D4F8AB
:100C2000B43103F00F039372D4F8B4314FEA1323B5
:100C3000D374D4F8B831D372D4F8B8314FEA13234F
:100C40001373D4F8B8314FEA13435373D4F8B8315F
:100C50004FEA13639373D4F8BC31D373D4F8BC3127
:100C60004FEA13231374D4F8BC314FEA134353747F
:100C7000D4F8BC314FEA136393744FF0100208BFED
:100C80000C22815841F02001815010BD0021C0F894
:100C90000610418140F203218180012101607047EB
:100CA000B0B502468068400109D49068000108D4BC
:100CB0009068C0004FF0020058BF042002E00020FE
:100CC00000E00120042808BFB0BD02EB0012D2F8FA
:100CD000803102F5C07E03F00103C2F8803191F843
:100CE00008C0BCF1000F03D04B684CEAC30C02E013
:100CF0000B684FEA435C4B7A8C7ADEF8005043EA8B
:100D00000C032B43CEF8003004F00F038B72D2F8A3
:100D1000845125F00F05C2F88451D2F884512B4339
:100D2000C2F88431D1F80B30C2F88831D1F80F10F5
:100D3000C2F88C11DEF8001041F00101CEF800106D
:100D4000B0BD0000084018BF0120704746F2000205
:100D5000C4F2020202F58263984240F67D7002F509
:100D60008062C0F67D703CBF46F20002C4F202020F
:100D70008B0000EA010054BF9060D0607047000013
:100D80000268002942F0010308BF22F0010303605A
:100D900070470000016821F001010160002101603D
:100DA00041608160C160016146F20F41C4F20201FD
:100DB00088424FF02101416122DC46F26F01C4F20A
:100DC0000201884240DC46F23F01C4F2020188423F
:100DD0006FDC46F21001C4F20201884200F0C280CA
:100DE00046F22801C4F20201884201BF46F208001F
:100DF000C4F202004FF47461016008BF7047F4E070
:100E000046F26F41C4F20201884238DC46F23F41AB
:100E1000C4F20201884262DC46F21041C4F20201CF
:100E2000884200F0A68046F22841C4F202018842BE
:100E300001BF46F20800C4F202004FF47461C0F82A
:100E4000001408BF7047D0E046F29F01C4F20201CF
:100E500088425BDC46F27001C4F20201884200F075
:100E6000908046F28801C4F20201884240F0BD80C1
:100E700046F20800C4F2020040F6407186E046F2F5
:100E80009F41C4F20201884256DC46F27041C4F22E
:100E9000020188427ED046F28841C4F202018842B3
:100EA00018BF704746F20C40C4F2020040F6407191
:100EB00075E046F24001C4F20201884273D046F266
:100EC0005801C4F20201884201BF46F20800C4F290
:100ED00002004FF07461016008BF704785E046F280
:100EE0004041C4F20201884265D046F25841C4F242
:100EF0000201884201BF46F20800C4F202004FF02E
:100F00007461C0F8001408BF70476EE046F2A0019B
:100F1000C4F20201884257D046F2B801C4F202017D
:100F2000884201BF46F20800C4F202004FF03D5172
:100F3000416008BF704758E046F2A041C4F2020188
:100F400088424AD046F2B841C4F20201884201BF49
:100F500046F20C40C4F202004FF03D51016008BF60
:100F6000704742E046F20800C4F202003D210160F1
:100F7000704746F20800C4F202003D21C0F8001498
:100F8000704746F20800C4F202003D21C2F200019F
:100F90004160704746F20C40C4F202003D21C2F2AB
:100FA00000010160704746F20800C4F202004FF4ED
:100FB00074110160704746F20800C4F202004FF459
:100FC0007411C0F80014704746F208000021C4F202
:100FD0000200C2F23D014160704746F20C40002120
:100FE000C4F20200C2F23D0101607047006800F0E7
:100FF00001007047406880B2704700000B0608D5BA
:10100000D0F814C0002A4CF0800308BF2CF08003F5
:101010004361802908BF704701F01E011AB10268C0
:10102000114301607047026822EA010101607047C4
:101030002DE9F04F026848F23F03CFF21C03D1F8CC
:1010400000901A40D1E9038E01F1140C9CE8F010D5
:1010500042EA090242EA080222432A4332438B6AE7
:101060003A43D1E90DAB42EA0C021A4342EA0A02C2
:1010700042EA0B0202604269D1E90B3722F0070213
:101080001A433A434261C0F804E04A6882608968C2
:10109000C160BDE8F08F0000B0B582B01020012122
:1010A00000F018F94FF40040009040F2012041F2A6
:1010B0000004ADF804000020C4F202046D468DF86F
:1010C00006002046294600F01FF84FF480400090AB
:1010D0002046294600F018F84FF4005000902046B2
:1010E000294600F011F84FF4805000902046294620
:1010F00000F00AF84FF4006000902046294600F006
:1011000003F802B0B0BD00002DE9F041D1F8008035
:1011100000234FF0030C4FF0010E00240FE000BF3E
:10112000C268AA43C260CA79C5689A402A43C260AD
:101130000134102C03F1020308BFBDE8F08128FA46
:1011400004F5ED07F4D006680CFA03F5AE4306602B
:101150000E79076806FA03F2013E3A43012E026057
:10116000DED88268EE43324082604A798E798768A1
:101170009A403A43826042680EFA04F7BA434260EA
:1011800006FA04F2466892B232434260C8E70000B1
:101190001C2303EA810C6FF0030303EA51010844A6
:1011A0000F23016A03FA0CF399430162016A02FA00
:1011B0000CF21143016270470069084018BF01201A
:1011C00070470000FEE7000010B5C17800294EF21C
:1011D0000011CEF200011CD04EF60C52CEF20002ED
:1011E0001268072323EA12220F23C2F1040C23FA08
:1011F00002FE427884785FFA8CF390F800C09A403F
:1012000004EA0E031A43120101EB0C0383F80023D6
:1012100000E080310078012300F01F0203FA02F29F
:10122000C0F3421041F8202010BD000040F0806063
:101230004EF60C5140F0FD70CEF200010860704790
:10124000EFF30980BFF36F8F154B1A681EF0100F74
:1012500008BF20ED108A20E9F04F10602DE9090049
:101260004FF0500080F31188BFF34F8FBFF36F8FA3
:1012700004F0A0FD4FF0000080F31188BDE80900E4
:1012800019680868B0E8F04F1EF0100F08BFB0EC06
:10129000108A80F30988BFF36F8F704700BF00BFCB
:1012A000201B002010B582B001200121012400F094
:1012B00011F8042000904FF44070ADF804000020B5
:1012C000C4F2020069468DF80740FFF71DFF02B027
:1012D00010BD0000002943F63001C4F202010A6883
:1012E0000CBF22EA0000104308607047002943F653
:1012F0004001C4F202010A680CBF22EA0000104358
:1013000008607047002943F62001C4F202010A6810
:101310000CBF22EA0000104308607047002943F622
:101320004401C4F202010A680CBF22EA0000104323
:1013300008607047002943F62401C4F202010A68DC
:101340000CBF22EA000010430860704710B543F656
:101350000404C4F20204626802F00C0342F2004288
:10136000082BC0F2F40206D0042B20D141F2002257
:10137000C0F27A021BE0D4F800C0236803F03F0EED
:101380005FEA4C2341F20023C0F27A0358BF1346B0
:101390002268B3FBFEFCC2F38812236802FB0CFC3C
:1013A000C3F30143022202EB4302BCFBF2F20260F0
:1013B000626846F64813C2F30312C0F600039A5C53
:1013C0000168D14041606268C2F382229A5C21FACE
:1013D00002F282606268C2F342329A5CD140C1601C
:1013E00010BD000000000000000000000000000030
:1013F000074B19680868B0E8F04F80F30988BFF31D
:101400006F8F4FF0000080F31188704700BF00BF5E
:10141000201B002082B043F608000021C4F2020025
:101420000191009150F8081C41F4803140F8081CEB
:1014300050F8081C01F4003100910199013101912B
:10144000009919B90199B1F5A04FF1D150F8081CD4
:10145000890354BF0021012100910099012936D14F
:10146000816B41F08051816347F20001C4F20001B9
:101470000A6842F440420A6001680160016841F470
:1014800000410160016841F4A051016045F208414A
:10149000C0F2407140F8041C50F8081C41F0807103
:1014A00040F8081C50F8081C8901FBD540F2057172
:1014B000C0F8F813016821F003010160016841F0F0
:1014C00002010160016801F00C010829FAD102B0A3
:1014D000704700004EF21001CEF200010A680428A5
:1014E00022F0040308BF42F004030B6070470000C1
:1014F00080B50420FFF7EEFF4EF21000CEF20000A0
:10150000016841F00201016049F24001C0F20201AC
:101510004160016841F00101016080BD80B500F0CB
:10152000F9FD80BD10B54EF68854CEF20004206857
:101530004FF6FF7340F47000206043F60000C4F2E1
:1015400002000168CFF6F66341F00101016000215D
:10155000816002681A40026043F21002C2F2004247
:101560004260026822F480220260C160FFF752FFED
:101570004FF0006044F8800C10BD000010B584B03E
:1015800008200121FFF7B2FE532001904FF0FF30F9
:1015900040F6004402900020C4F20004ADF80C00B4
:1015A00001A9204600F010F82046012100F002F8C1
:1015B00004B010BD0288002942F0010308BF22F0E8
:1015C000010303807047000010B540F6FF32B0F809
:1015D00000E0C4F2000240F2004C9042C4F2010C60
:1015E0000FDCB0F1804F19D040F20042C4F200028B
:1015F000904213D040F60002C4F2000290420DD097
:1016000011E040F60042C4F20002904206D060456C
:1016100004D00022C4F20102904204D14A882EF084
:10162000700342EA030E41F2004340F48062C4F2C8
:1016300000039A4204D00C892EF4407344EA030E4E
:10164000A0F800E04B686245C3620B88038504BFC5
:10165000897A01860121818210BD00002DE9F04FB9
:1016600097B00420C0F220000121FFF733FE4FF4B1
:1016700000200121FFF73AFE44F60044C4F20004C2
:1016800004F5DE3528460A210822FFF781FD2846A9
:101690000B210822FFF77CFD4FF44060119040F2CF
:1016A0000220C0F20010129011A92846FFF72CFD6D
:1016B00040F23450C0F20510109010A8FFF784FDDE
:1016C0004FF4E12013904FF440200027159013A908
:1016D00020461497ADF8587000F074FC2046402165
:1016E000012200F0A7FB20468021012200F0A2FB8E
:1016F0002046012100F094FB46F27005C4F2020579
:10170000A5F130063046FFF745FB41F28A404FF025
:1017100000690434C2F20000CDF804900294CDE9CF
:1017200003074FF4FA70CDE905074FF4806B4FF4CF
:101730008070CDE907B70A904FF4403803200DF1CF
:10174000040A0997CDE90B87CDE90D0730465146CC
:101750000F97FFF76DFC30460121FFF711FB28467C
:10176000FFF718FB4020CDE901940397CDE904076A
:1017700028465146CDE9067BCDE90877CDE90A78C0
:10178000CDE90C77CDE90E77FFF752FC2846102102
:101790000122FFF733FC28460021FFF7F1FA17B0CA
:1017A000BDE8F08F80B544F60040C4F2000000F0C0
:1017B000A3FD80BD2DE9F04F97B00C20C0F22000B2
:1017C0000121FFF787FD4FF480100121FFF78EFD07
:1017D00045F20004C4F2000404F5DC3528460C216F
:1017E0000822FFF7D5FC04F5DE3630460221082238
:1017F000FFF7CEFC4FF48050119040F20220C0F26F
:10180000001011AF129028463946FFF77DFC0420E6
:10181000119030463946FFF777FC40F23550C0F260
:101820000510109010A8FFF7CFFC4FF4E1201390A3
:101830004FF440200027159013A920461497ADF8C7
:10184000587000F0BFFB20464021012200F0F2FA60
:1018500020468021012200F0EDFA2046012100F00F
:10186000DFFA46F2B805C4F20205A5F1A806304633
:10187000FFF790FA41F27E604FF000690434C2F243
:101880000000CDF804900294CDE903074FF4FA70FC
:10189000CDE905074FF4806B4FF48070CDE907B7B1
:1018A0000A904FF4403803200DF1040A0997CDE95E
:1018B0000B87CDE90D07304651460F97FFF7B8FB70
:1018C00030460121FFF75CFA2846FFF763FA402013
:1018D000CDE901940397CDE9040728465146CDE9A7
:1018E000067BCDE90877CDE90A78CDE90C77CDE91B
:1018F0000E77FFF79DFB284610210122FFF77EFBA4
:1019000028460021FFF73CFA17B0BDE8F08F000031
:1019100080B545F20000C4F2000000F0EDFC80BD8F
:10192000F0B597B00120C0F240000121FFF7D2FCD2
:1019300010200121FFF7F2FC41F20004C4F201047F
:1019400004F5704528460A210722FFF721FC40F2E2
:1019500002304FF48066129011A928461196FFF7C5
:10196000D3FB204600F06EFA48F2A060C0F20100FE
:10197000139040F20040C0F204000027159013A914
:1019800020461497ADF8587000F01CFB204601214A
:1019900000F046FA20464021012200F04BFA40F2C6
:1019A0002550C0F20510109010A8FFF70DFC46F26C
:1019B0004045C4F202052846FFF7ECF94FF00060FD
:1019C0000190201D029041F27000C2F20000CDE9AA
:1019D00003073220CDE905074FF48070CDE9076792
:1019E0000A904FF440300997CDE90B0701A928462A
:1019F000CDE90D770F97FFF71BFB28460121FFF775
:101A0000BFF917B0F0BD000080B541F20000C4F28C
:101A1000010000F071FC80BD2DE9F04F97B0082067
:101A2000C0F220000121FFF755FC4FF400300121E6
:101A3000FFF75CFC44F20044C4F2000404F5E43512
:101A4000284605210722FFF7A3FB28460621072287
:101A5000FFF79EFB6020119040F20230129011A916
:101A60002846FFF751FB40F22650C0F205101090B7
:101A700010A8FFF7A9FB4FF4E12013904FF440208A
:101A80000027159013A920461497ADF8587000F060
:101A900099FA20464021012200F0CCF9204680210D
:101AA000012200F0C7F92046012100F0B9F946F201
:101AB000A005C4F20205A5F118063046FFF76AF941
:101AC0004FF00060019041F2A2000434C2F2000025
:101AD0000294CDE903074FF4FA70CDE905074FF4FE
:101AE000806B4FF480700DF1040ACDE907B70A90BE
:101AF0004FF440384FF00309304651460997CDE97D
:101B00000B87CDE90D970F97FFF792FA3046012129
:101B1000FFF736F92846FFF73DF94FF0006001A9BD
:101B200091C14020CDE9040728465146CDE9067B06
:101B3000CDE90877CDE90A78CDE90C79CDE90E77C2
:101B4000FFF776FA284610210122FFF757FA2846B8
:101B50000021FFF715F917B0BDE8F08F80B544F20A
:101B60000040C4F2000000F0C7FB80BD2DE9F04F3B
:101B700097B00820C0F220000121FFF7ABFB4FF423
:101B800080200121FFF7B2FB44F60004C4F20004F8
:101B900004F5E235284608210722FFF7F9FA28461E
:101BA00009210722FFF7F4FA4FF44070119040F238
:101BB0000220C0F20010129011A92846FFF7A4FAE3
:101BC00040F22750C0F20510109010A8FFF7FCFA61
:101BD0004FF4612013904FF440200027159013A973
:101BE00020461497ADF8587000F0ECF920464021DB
:101BF000012200F01FF920468021012200F01AF98D
:101C00002046012100F00CF946F25805C4F2020505
:101C1000A5F130063046FFF7BDF84FF000600190A7
:101C200041F296200434C2F200000294CDE9030789
:101C30004FF4FA70CDE905074FF4806B4FF48070D4
:101C40000DF1040ACDE907B70A904FF440384FF080
:101C50000309304651460997CDE90B87CDE90D9729
:101C60000F97FFF7E5F930460121FFF789F828467D
:101C7000FFF790F84FF0006001A991C14020CDE935
:101C8000040728465146CDE9067BCDE90877CDE922
:101C90000A78CDE90C79CDE90E77FFF7C9F9284626
:101CA00010210122FFF7AAF928460021FFF768F862
:101CB00017B0BDE8F08F000080B544F60000C4F214
:101CC000000000F019FB80BD2DE9F04F97B0042013
:101CD000C0F240000121FFF7FDFA20200121FFF7AB
:101CE0001DFB41F20044C4F2010404F5744528468A
:101CF00007210822FFF74CFA284606210822FFF7A1
:101D000047FAC020119040F20220C0F20010129059
:101D100011A92846FFF7F8F940F24750C0F2051024
:101D2000109010A8FFF750FA4FF4E12013904FF4F1
:101D300040200027159013A920461497ADF858703D
:101D400000F040F920464021012200F073F82046BF
:101D50008021012200F06EF82046012100F060F899
:101D600046F2A045C4F20205A5F178063046FFF719
:101D700011F84FF02060019041F672000434C2F275
:101D800000000294CDE903074FF4FA70CDE905078E
:101D90004FF4806B4FF480700DF1040ACDE907B762
:101DA0000A904FF440384FF00309304651460997E6
:101DB000CDE90B87CDE90D970F97FFF739F930463D
:101DC0000121FEF7DDFF2846FEF7E4FF4FF020601B
:101DD00001A991C14020CDE9040728465146CDE92B
:101DE000067BCDE90877CDE90A78CDE90C79CDE914
:101DF0000E77FFF71DF9284610210122FFF7FEF8A4
:101E000028460021FEF7BCFF17B0BDE8F08F0000A8
:101E100080B541F20040C4F2010000F06DFA80BDCF
:101E20008289002942F4005308BF22F400538381C1
:101E300070470000002A828A0CBF22EA0101114388
:101E40008182704780B547F2FF71C4F20001884279
:101E500019DC44F6FF31C4F2000188422DDC44F263
:101E60000041C4F2000188424ED044F60001C4F2A1
:101E7000000188425AD14FF480200121FFF742FA35
:101E80004FF480205AE040F6FF71C4F2010188420D
:101E900027DC47F60001C4F2000188423CD047F637
:101EA0000041C4F20001884240D14FF000400121BE
:101EB000FFF728FA4FF0004040E044F60041C4F23A
:101EC0000001884233D045F20001C4F2000188428B
:101ED0002CD14FF480100121FFF714FA4FF4801039
:101EE0002CE041F20041C4F2010188422AD041F2C3
:101EF0000001C4F20101884218BF80BD10200121F9
:101F0000FFF718FA102022E04FF400300121FFF70C
:101F1000F9F94FF4003011E04FF080400121FFF754
:101F2000F1F94FF080400021FFF7ECF980BD4FF44C
:101F300000200121FFF7E6F94FF400200021FFF710
:101F4000E1F980BD20200121FFF7F4F920200021D4
:101F5000FFF7F0F980BD000001F01F024FF0010C07
:101F6000C1F34213022B0CFA02F206D0012B14BF6C
:101F700000F1140300F10C0301E000F110031B88D1
:101F80000088090A1A4020FA01F018BF0122104007
:101F900070470000C1F3421301F01F0C1421022B03
:101FA00008BF1021012B4FF0010308BF0C21002AAC
:101FB00003FA0CF243580CBF23EA02021A434250C0
:101FC0007047000070B584B00446008A0D46C98889
:101FD00020F4405008432082A0894EF6F3110840B7
:101FE000A9882A896B89084310431843A081A08AD5
:101FF000A98920F4407008436E46A0823046FFF75E
:10200000A5F941F2004144F48060C4F20101884224
:1020100014BF06F1080006F10C0000681922B4F99B
:102020000C1050432A680223002948BF012302FAFA
:1020300003F1B0FBF1F048F21F51C5F2EB11A0FB28
:1020400001235A096FF0630302FB0300B4F90C305B
:102050000426002B48BF032600FA06F000F13200E8
:10206000A0FB01014FF00F0048BF072000EA51100C
:1020700040EA0210208104B070BD000080B500F07D
:1020800069FC40F60460C2F2000002F01FFB01F0A0
:10209000C5F800F0C5FA80BD70B5044646F20046AA
:1020A00041F6C42041F6F025C4F20006C2F2000059
:1020B000C2F20005B44208BF054620460221FEF7E1
:1020C00087FCD8B120460221FEF7C2FB2A1D20461C
:1020D0000021FEF78BFD284600F0A8F9B4420ED08F
:1020E00006F58060844218BF70BD40F6C860C2F239
:1020F0000000D0F8C0100131C0F8C01070BD40F62B
:10210000C860C2F20000D0F8B8100131C0F8B810B1
:1021100070BD000010B504F0B3F9012818BF03F03A
:1021200057FF40F6C860C2F20000D0F8C8C047F6BA
:10213000D502C2F2E9620CFB02F248F637134FEA0D
:10214000F202C0F241039A4200F28D800368816876
:10215000D0F810E000228469C0E90023C0E9022120
:10216000C0E9042E016A82614162816AC461C16270
:10217000016B02624163816B8262C163016C026325
:102180004164816C8263C164016D02644165816D4B
:1021900082640265C0E91621016ED0F8883041667C
:1021A000D0F89010C0F88C30C0F89410D0F8981087
:1021B00040F64853C0F89C10D0F8A010C2F20003BB
:1021C000C0F8A410D0F8A8100266C0F8AC10D0F87F
:1021D000B010C0F88820C0F8B410D0F8B810C0F81B
:1021E0009020C0F8BC10D0F8C010C0F89820C0F8FB
:1021F000C4101968C0F8A02059609968C0F8A820D8
:10220000D9601969C0F8B02059619969C0F8B8203F
:10221000D961196AC0F8C0205962996A1A60D962F6
:10222000196B9A605963996B1A61D963196C9A6139
:102230005964996C1A62D964196D9A625965996DDD
:102240001A63D965196E9A635966996E1A64D966CC
:10225000196F9A645967996F1A659A651A669A6632
:102260001A67C3E91E210CF10101C0F8C81010BDA6
:1022700044F6FF71C4F20001884240F6C861C2F220
:10228000000114DC44F20042C4F20002904224D067
:1022900044F60002C4F20002904221D044F600420B
:1022A000C4F20002904226D101F1A00020E045F2E4
:1022B0000002C4F20002904215D041F20002C4F2C2
:1022C0000102904212D041F20042C4F20102904257
:1022D00018BF704701F1B0000AE001F1900007E07B
:1022E00001F1980004E001F1A80001E001F188008B
:1022F000016801310160704770B582B040F2B011E1
:10230000C2F200010C6A40F278062168054681425B
:10231000C2F2000622D0746B2068A8421ED040F69C
:10232000F070C2F20000846E2068A84216D040F619
:10233000C850C2F20000846B2068A8420ED040F260
:102340001420C2F20000D0F82C0840F2D812016824
:10235000C2F20002946BA94208BF04462846FFF768
:1023600087FF206840F22441FFF7F6FD50B3206854
:1023700040F2740201888088716BC2F200020E681C
:102380001080204602F012FCAE421DD0218A884205
:1023900018D141F66820C2F20000006890B194F8AC
:1023A000281001AA03F08AFD60B1019850B14EF6E1
:1023B0000450CEF200004FF080510160BFF34F8F08
:1023C000BFF36F8F02B070BD41F66820C2F200000B
:1023D00000680028F6D094F8281001AA03F06EFDDA
:1023E0000028EFD001980028ECD04EF60450CEF231
:1023F00000004FF080510160BFF34F8FBFF36F8F2C
:1024000002B070BD80B502F02FFD02F035FD02F084
:102410003BFD02F041FD02F047FD02F04DFD02F0F0
:1024200053FD02F059FD02F05FFD80BD70B50168FB
:1024300046F20042C4F20002914200D070BD4168F1
:1024400040F2022291421FD040F20122914218BF75
:1024500070BD40F60466C2F2000600F10F05F46894
:10246000284601F007FE0146204602F0D5FAF4683E
:10247000284601F0F3FD00EE100AB8EEC00A20462F
:1024800002F0DEFAF06819E040F60466C2F20006D7
:1024900000F10F053469284601F0ECFD01462046A5
:1024A00002F0BAFA3469284601F0D8FD00EE100AAD
:1024B000B8EEC00A204602F0C3FA3069C16C01319F
:1024C000C16470BD2DE9F04381B041F6782500F07C
:1024D0000401C2F2000541F68027296000F00801DE
:1024E000C2F2000741F67429396000F01001C2F20F
:1024F000000941F67C2840F6C86400F00206C9F8DD
:10250000001000F02001C2F20008C007C2F200046F
:10251000C8F8001004D001F077FAA06B0130A06376
:1025200046B140F27800C2F20000416B8868898AA7
:1025300001F0C8FB286850B140F6F070C2F200000C
:10254000806E806801F074FBA06C0130A064386874
:1025500050B140F6C850C2F20000806B806801F0B4
:102560001FFC206D01302065D9F8000058B140F201
:102570001420C2F20000D0F82C08806801F090FB13
:10258000A06D0130A065D8F8000050B140F2D8101D
:10259000C2F20000806B806801F068FB206E0130A1
:1025A000206601B0BDE8F08380B540F6C86141F611
:1025B000842CC2F20001C2F2000CD1F8BC30DCF86D
:1025C0000000D1F8C420190901307C29CCF80000A2
:1025D0000BD813097C2B08D84AF6AB21CAF6AA21DE
:1025E0004843B0F1553F06D980BD12097C2A09D86D
:1025F000C00718BF80BD40F2D410C2F2000002F044
:10260000DBF880BD40F2D410C2F200007C2902D871
:1026100002F0D2F880BD002102F0F2F880BD000087
:10262000B0B582B003F032FA012046F6584441F2C8
:102630006C05009042F68140C0F60004C2F200052D
:10264000C0F60000214664220023019503F0E8FE55
:10265000022041F26805009042F29170C2F200053A
:10266000C0F600002146C8220023019503F0D8FEE1
:1026700041F67020C2F20000019043F6A920032524
:10268000C0F600002146C8220023009503F0C8FED2
:1026900041F26400C2F20000019043F6F930C0F646
:1026A00000002146C8220023009503F0B9FE41F244
:1026B0005C00C2F20000019043F60930C0F6000051
:1026C0002146C8220023009503F0AAFE40F27000C4
:1026D000C2F20000019043F6C130C0F6000021466E
:1026E000C8220023009503F09BFE41F2600C43F6E4
:1026F0004130C2F2000CC0F600002146C82200237F
:102700000095CDF804C003F08BFE042041F66C2543
:10271000009042F24570C2F20005C0F6000021466A
:10272000C8220023019503F07BFE03F079FB41F6FC
:102730006821C2F20001086003F0B8F903F0F6FA6C
:1027400002B0B0BD82B040F6244441F6682841F69C
:10275000882740F6C865C4F20004C2F200084FF0B2
:10276000FF36C2F20007C2F2000500BFD8F8000031
:10277000FF2101220023009603F0ACFB21683960A1
:10278000FFF7A0FE20683968401AC5F88400EDE71D
:1027900040F6244441F68C2540F6C866C4F2000495
:1027A000C2F20005C2F200062068286000F012F8AC
:1027B00000F01EF900F028FB00F08AFFB06801303D
:1027C000B06020682968401AF066012003F0F8F92B
:1027D000EAE70000B0B540F6C860C2F20000D0F8E9
:1027E0008C0040F2AC150428C2F200052BD840F64C
:1027F0004C20C2F20000007800F0F000402840F6C3
:102800000460C2F2000046D190F8AA1040F6C3134B
:1028100000294FF0000108BF05212970B0F8AC1065
:102820000022994240F6B733027780F8302088BF03
:102830000122994280F87E208CBF40F6B8310131E8
:10284000A0F8AC103DE040F2B010C2F20000017FF1
:10285000407F022908BF02281BD0022908BF032895
:1028600021D0022908BF01281FD0032908BF012851
:102870001DD0012908BF01281BD0032908BF032848
:1028800019D0032908BF022817D0012908BF022840
:1028900015D0002014E00021A0F8AC10297001210F
:1028A00080F87E100DE002200AE0032008E00420FA
:1028B00006E0012004E0062002E0052000E00720F9
:1028C00028702878C11E03294FF0020105D307287C
:1028D00003D0022814BF0021012140F60464C2F293
:1028E0000004204601F0CEFC287840F201120238A4
:1028F000C0B2C1000023C0F20222042838BF22FA6D
:1029000001F3D9B2204601F0B9FC287807280AD88B
:102910000121814011F0D20F01D0012104E00528EE
:1029200001D1022100E0002140F60464C2F200045B
:10293000204601F0B5FC28780323C1004FF4813212
:10294000032838BF22FA01F3D9B2204601F0BCFDBA
:10295000B0BD0000B0B582B044F20044C4F200043F
:1029600040F2B01004F54C41C2F2000001F0E6FF65
:1029700040F27800C2F20000214601F0B3FE40F6BA
:10298000F07004F58061C2F2000001F015FC40F621
:10299000C85004F50061C2F2000001F0D3FE40F21D
:1029A000142004F54061C2F2000001F0AFFB40F2D8
:1029B000D81004F55041C2F2000001F02FFC41F69E
:1029C000C42004F500510825C2F2000000220023B3
:1029D000009501F091FB41F6F02004F51051C2F290
:1029E000000000220023009501F086FB02B0B0BD7C
:1029F000F0B581B02DED028B40F60464C2F2000404
:102A0000E068B7EE008A0021B0EE480A002601F027
:102A1000B3FFE0680021B0EE480A01F0C9FF206969
:102A20000021B0EE480A01F0A7FF20690021B0EEB6
:102A3000480A01F0BDFF40F6C850C2F20000D0E9DC
:102A40000B1040F6F077206740F2D810C2F2000079
:102A5000A166D0E90B10C2F20007A1652066396EAD
:102A60006069A16702F0D6F940F6C861C2F20001C0
:102A7000D1F8AC206369472A187018D340F21420AB
:102A8000C2F20000D0F833209FED690AD0F84B3035
:102A9000D0F84F5001EE102A21EE000A90F8556050
:102AA00084ED240AC4F89430C4F8985003E0C4E9D3
:102AB0002466C4F89860D1F8940084F8A86033289C
:102AC00011D340F27800C2F2000050F82A2F94EDA2
:102AD000240A01EE102A406831EE400A84ED290AEA
:102AE00000EE100A04E09FED530A0020C4F8A40091
:102AF000D1F89C0084ED280AB0F5617F06D9B7F8BB
:102B00005C10B7F85E00A4F89C1002E00020A4F866
:102B10009C0040F64C25C2F2000595F89D10A4F8E3
:102B20009E004339172918D8DFE801F00C17171752
:102B30001717171717171717171717171717170E2E
:102B400017121714012000E0002084F8AA0004E006
:102B5000002000E0012084F8A900E88F38B1B5F822
:102B60005B1028388842BCBF012084F8440094F8E8
:102B7000440020B1B4F846000130A4F84600B4F88F
:102B8000460040F6C511884222BF002084F8440068
:102B9000A4F84600B5F8440038B1B5F85D102838FF
:102BA0008842BCBF012084F8480094F8480020B156
:102BB000B4F84A000130A4F84A00B4F84A0040F6DC
:102BC000C511884222BF002084F84800A4F84A00BA
:102BD000D5F8760000EE100AB5EE400AF1EE10FAD4
:102BE00009D094ED131AB4EE410AF1EE10FA02D0B6
:102BF000A06901F079FED5F87D00D5F8761000EED9
:102C0000100AB5EE400AF1EE10FAE16409D094ED35
:102C1000141AB4EE410AF1EE10FA02D0A06901F0E4
:102C200063FED5F87D002065BDEC028B01B0F0BDE0
:102C3000DE2E654200000000B0B540F60460C2F22E
:102C40000000817940F6F0740A46012918BF02227B
:102C5000002908BF0A46406FC2F20004C4F803000E
:102C6000E01D502184F85720651CFDF750FB2846D5
:102C7000592100F035FF204601F0B2FAB0BD000046
:102C800040F6244541F6902640F2D41440F6C86739
:102C9000C4F20005C2F20006C2F20004C2F200074C
:102CA00028683060204601F07DFD00F095FE00F0C0
:102CB00025FEFFF779FC38680130386028683168F4
:102CC000401AB8664FF4FA7002F07AFFE8E70000A5
:102CD0002DE9F04FBFB06E460C4605463046FA214E
:102CE000FDF737FB002C00F07C804FF0000A00203D
:102CF00005E000BF013C05F1010500F072805FFABC
:102D00008AF10629F6D82A78DFE801F0122D1B0493
:102D100021394500471CC0B23254F9B2304600F0A8
:102D2000ADFE002818BF01204FEA800A3846E1E7CF
:102D3000A52A53D1A5208DF8000001204FF0010AEB
:102D4000D8E7C1B2013072544FF0030AD2E7411CF8
:102D5000C0B2CBB23254072B04BF4FF0050ABDF806
:102D600005B00846C6E7411CC0B2CBB23254032BB3
:102D700004BF4FF0020ABDF801800846BAE7C1B2AD
:102D8000013072540722C1B212FA88F28A4208BF97
:102D90004FF0060AAEE700F1010909235FFA89F155
:102DA00013FA88F3C0B28B42325415D1304600F08A
:102DB000E3FE88B11FFA8BF01FFA88F2314601F06A
:102DC00019F840F6C861C2F20001D1F890004FF046
:102DD000000A0130C1F8900048468BE74FF0000A26
:102DE00088E73FB0BDE8F08F61B146F6583C013846
:102DF000C0F6000C10F8013FD2B25A401CF8022075
:102E00000139F7D11046704780B500F0E9FC00F0B9
:102E10005BFA00F08FF880BD10B540F60461C2F295
:102E20000001087F40F2D814C2F20004E07391F868
:102E30007C0091ED2C0A40F64C22C2F20002207474
:102E4000BDEEC00A92F8360010EE103A07286374FF
:102E500003D06B2803D10A2000E00920A07491F868
:102E60007E004B6DC96DD2F87620E074601CC4F80A
:102E700007101521C4F80330C4F80B2000F030FE11
:102E8000204601F0DFF910BD10B540F60460C2F233
:102E9000000040F21424D0E92810C2F20004C4F863
:102EA000110040F2D810C2F2000000F1180EC4F870
:102EB0000D109EE80E50D4F82808C4F8151000F143
:102EC0002D0109097C29C4F81920C4F81D30C4F863
:102ED00021C0C4F825E020D8411CC4F8281804F10A
:102EE0005801AB220A54D4F82808421CC4F82828F8
:102EF000A0220A54D4F82808421CC4F828282A2200
:102F00000A54D4F828082A220844611CFDF7B2F9B3
:102F1000D4F828082A30C4F82808D4F82808D4F8A7
:102F20002C184884204601F009F90020C4F828082C
:102F3000E07010BDF0B581B040F60464C2F2000448
:102F4000206A41F69426C2F2000630602079616B57
:102F500041F69827C2F20007012839601DD00228E7
:102F600014BF01210021217784F83010022832D0CB
:102F7000012840F0A580207F94F84410084340F0D9
:102F8000DF8040F2B010C2F20000008B40F2CD3181
:102F9000884200F2C5800120C7E0227AA178002A89
:102FA00008BF01290BD0022940F09C80A37A023B84
:102FB00023F00203B3FA83F35B0900F0938040F23D
:102FC000B013C2F200035B8B40F2CD35AB4200F28E
:102FD0008380012385E0217F94F84420114333D17D
:102FE00094F87E1081B340F2D811C2F2000191F83A
:102FF00034204AB391F83510012902D194F8B42055
:1030000012BB022909D194F8B520EAB940F2142282
:10301000C2F2000292F85420B2B1032902D194F80E
:10302000B6208AB9042902D194F8B72062B90529DB
:1030300002D194F8B8203AB9072940F0D28094F828
:10304000B910002900F0CD80022839D194F8300061
:1030500094F84810084333D194F87E0080B340F6CA
:10306000C850C2F2000090F8341049B390F835000F
:10307000012802D194F8B41011BB022809D194F8A8
:10308000B510E9B940F21421C2F2000191F85410D0
:10309000B1B1032802D194F8B61089B9042802D13D
:1030A00094F8B71061B9052802D194F8B81039B96D
:1030B000072840F0A38094F8B900002800F09E8013
:1030C000E168226989680020E162916820623060CD
:1030D0006063386021645FE040F23345AB4201D366
:1030E00000232377012A08BF012907D002297FF492
:1030F0003DAFA17A033901293FF638AF40F2B01154
:10310000C2F20001498B40F2CD32914201D8012137
:103110002AE740F233429142FFF428AF002123E72F
:1031200040F2334188420BD3112040F6C861C2F20D
:103130000001D1F8C81084F82400204601F0A2FA5A
:1031400094F8300094F84810084325D140F2B010AC
:10315000C2F20000008B40F2CD3188420CD840F61C
:10316000C861C2F200010120D1F8C81084F838000B
:10317000204601F099FA0FE040F2334188420BD328
:1031800040F6C861C2F200011120D1F8C81084F8DD
:103190003800204601F088FA206A31689FED1E1A37
:1031A000401A00EE100AB8EE400A606B396894EDE0
:1031B0000B2A20EE010A401A32EE000A02EE100A33
:1031C00094ED103A84ED0B0AB8EE422A22EE011A71
:1031D00073EE010A2046C4ED100A01F033FA01B083
:1031E000F0BD40F6C861C2F200011120D1F8C8104C
:1031F00084F82400204601F045FACDE740F6C86186
:10320000C2F200011120D1F8C81084F8380020461D
:1032100001F04AFAC0E700BF00FF3F4710B544F293
:103220000044C4F2000404F54C4040F22441012261
:10323000FEF7B0FE204640F224410122FEF7AAFE2E
:1032400004F5806040F224410122FEF7A3FE04F55C
:10325000006040F224410122FEF79CFE04F540602C
:1032600040F224410122FEF795FE04F5504040F261
:1032700024410122FEF78EFE04F5005002210122B6
:10328000FDF72AFC04F5105002210122FDF724FC71
:1032900010BD000080B598B181B146F6581C0138C8
:1032A000C0F6000C10F801EFD3B283EA0E033CF82D
:1032B000133092B2013983EA1222F3D190B280BD69
:1032C0004FF6FF7290B280BD70B52DED048B40F6C5
:1032D0000464C2F20004A078022854D0012840F00F
:1032E000948094F87F0050B1002084F87F00A06D96
:1032F000216EA26E236F6065E1656266E36640F24F
:10330000B013C2F20003B3F812C09A8ABCF5CF7FA3
:103310004FF000004FF0000138BF0120B2F5CF7F21
:1033200038BF0121B3F816E0084040F262618E45D3
:103330004FF0000188BF0121084001284FF0000133
:1033400040F089801D8B6D08CE2D00F2848041F6FF
:103350009C25C2F200052E78002E7CD041F6A220DA
:10336000C2F20000018801318BB2B3F57A7F01808F
:1033700040F2848041F6A420C2F2000001210170D5
:10338000002028707AE040F2B010C2F20000428AB9
:103390000121B2F5CF7F828A84F87F104FF00001BF
:1033A00038BF0121B2F5CF7F4FF0000238BF0122B4
:1033B0001140C28A40F262639A424FF0000288BF15
:1033C0000122114001294FF000026FD1038B5B08ED
:1033D000CE2B6BD841F69D23C2F200031E78002E3F
:1033E00064D041F69E20C2F20000018801318AB209
:1033F000B2F5FA6F01806CD941F6A020C2F200004C
:10340000012101700020187063E0A06DA16E60655D
:1034100041F6A2206166C2F200000021018041F65F
:103420009E20C2F20000018041F6A420C2F20000FA
:10343000017041F6A020C2F20000A26F01700220CC
:10344000A07201206267A4F87C10217284F87F00CA
:10345000BDEC048B70BD1B8BB3F5CF7F38BF012152
:1034600008420BD141F6A220C2F2000000210180E7
:1034700041F69C20C2F200000121017041F6A42314
:10348000C2F200031878217A012808BF012932D03E
:10349000002980F0010018BF0121084331D101202B
:1034A00000212072197084F880002AE0008BB0F5AA
:1034B000CF7F38BF012211420BD141F69E20C2F2CC
:1034C00000000021018041F69D20C2F20000012190
:1034D000017041F6A020C2F200000178A27A012911
:1034E00008BF022A48D0D31EB3FA83F35B091942FE
:1034F00044D004214AE0002020721870012084F892
:103500008100A2F5806000EE100AACF5806001EE4B
:10351000100AAEF5806002EE100A41F6A220C2F257
:103520000000B8EEC00AB8EEC11AB8EEC22A008890
:1035300000288DD19FED613A207A80EE030A81EE5A
:10354000031A82EE038A9FED5E2A9FED5E9A0128A0
:1035500020EE020A21EE021A45D0002840F09A809F
:1035600094F88000002849D0002084F88000A06DE5
:10357000216E6065E1658DE0032107E0043A81F08A
:10358000010118BF0122114303D102210022027060
:10359000A17240F2AC10C2F20000007803281CBFF8
:1035A0000420A072A07A04280DD0032812D002288B
:1035B0007FF44EAF0220A4F87C00012084F8300094
:1035C000BDEC048B70BD40F20220A4F87C00BDEC81
:1035D000048B70BD4FF40070A4F87C0001202077AC
:1035E000BDEC048B70BD94F8810068B3002084F8B2
:1035F0008100A06E216F6066E1664BE094ED173AA2
:1036000094ED152A31EE031A30EE020A84ED171AF2
:10361000FBEE0E0AB3EE0E1A84ED150A00F0DAFB8B
:1036200094ED172ADFED280A9FED281A84ED150A7C
:10363000B0EE420A00F0CEFB012084ED170AA4F898
:103640007C0084F8300025E094ED1B3A94ED192AB3
:1036500031EE031A30EE020A84ED1B1AFBEE0E0A5D
:10366000B3EE0E1A84ED190A00F0B4FB94ED1B2A98
:10367000DFED150A9FED151A84ED190AB0EE420A26
:1036800000F0A8FB012020774FF4807084ED1B0A26
:10369000A4F87C0094F8820028EE090A20B1A06FFB
:1036A0006067002084F8820094ED1D1A31EE400A14
:1036B00084ED1D0ABDEC048B70BD00BF00002544E5
:1036C000CDCC4CBDCDCC4C3D000034C300003443C8
:1036D00010B540F60464C2F20004204600F0BAFFC0
:1036E000204600F0F5FE10BD70B540F60460C2F251
:1036F0000000017840F278040229C2F2000498BF69
:1037000084F823108179032908D840F20012C900F7
:10371000C0F2032222FA01F184F824104169D0F8A2
:1037200074C00978D0E9213284F82510D0F89C10B3
:10373000D0E923E5D0F89460601CC4F80310272179
:10374000C4F80730C4F80B20C4F80FE0C4F81350D5
:10375000C4F81760C4F81BC000F0C2F9204600F09E
:10376000D5FF70BD10B540F60461C2F2000191F8BA
:10377000300040F6C854C2F20004E07391F87D00B6
:1037800091ED2C0A40F64C22C2F200022074BDEEEC
:10379000C00A92F8360010EE103A0728637403D07E
:1037A0006B2803D10A2000E00920A07491F87E0064
:1037B0004B6EC96EE074C4F80710D2F87D1040F269
:1037C000D812C2F20002601CC2F80B101521C4F816
:1037D000033000F085F9204600F0C8FF10BD00005E
:1037E00040F60460C2F20000017802290DD00129E0
:1037F00022D140F2B011C2F200018A8A40F2334372
:103800009A4223D3A2F2324226E040F21421C2F2BD
:103810000001D1F82F20D1F83710B7EE000AC0E927
:10382000212190F8A8109FED321A002908BFB0EEB0
:10383000410A80ED230A70479FED2D0A0021C0F850
:103840008410C0F8881080ED230A704740F2CD3311
:103850009A420CD8A2F2CE3200EE102A9FED251A21
:10386000B8EEC00A80EE010A30EE000A01E09FEDDA
:10387000200A4A8A40F233439A4280ED210A02D359
:10388000A2F2324205E040F2CD339A420CD8A2F2C5
:10389000CE3200EE102A9FED181AB8EEC00A80EE64
:1038A000010A30EE000A01E09FED110AC98A40F2D8
:1038B0003342914280ED220A02D3A1F2324105E067
:1038C00040F2CD3291420ED8A1F2CE3100EE101A64
:1038D0009FED081AB8EEC00A80EE010A30EE000A29
:1038E00080ED230A70479FED020A80ED230A70479E
:1038F0000000000000002544000025C4F0B581B0A0
:1039000041F6A82540F6C867C2F20005C2F20007DA
:103910002868D7F89C104CF6CD4601303129CCF6FA
:10392000CC46286018D8A0FB0612D10801EB810113
:10393000A0EB410002280FD840F2D414C2F20004D8
:103940002046012100F042FF2046002100F04CFFFC
:103950002046002100F054FFD7F8B40031281AD8CF
:103960002868A0FB0612D10801EB8101A0EB410001
:10397000033803280FD840F2D414C2F200042046C2
:10398000012100F031FF2046002100F01FFF2046FA
:10399000002100F035FFD7F8B40080087C2819D842
:1039A0002868A0FB0612D10801EB8101A0EB4100C1
:1039B00007280FD340F2D414C2F20004204601219C
:1039C00000F01EFF2046002100F000FF20460021ED
:1039D00000F00AFF01B0F0BD40F6C860C2F200007E
:1039E000D0F88C00312888BF704740F2B010C2F286
:1039F00000004FF00421C0F81210C0F816104FF468
:103A0000806141837047000040F2B010C2F20000B4
:103A10000178427890F802C062F30A21C3784182AB
:103A2000D1086CF34A1102798182990941EA830134
:103A300002F0010341EA8321C18241795208037CEB
:103A400090F811C061F3CA1202836CF30A238A0949
:103A500043830277C1F301114177704760B10329B5
:103A600038BF7047B0B54D1E2946FF220446FFF708
:103A7000BBF96055BDE8B04070470000B0B50446E2
:103A800000284FF000000DD0032938BFB0BD4D1EF7
:103A900020462946FF22FFF7A7F9615D401AB0FAD8
:103AA00080F04009B0BD000040F6244441F6AC254A
:103AB00040F6C866C4F20004C2F20005C2F2000675
:103AC00020682860FFF7B8F830690130306120685D
:103AD0002968401A3067012002F072F8F0E7000010
:103AE00088B1032938BF7047B0B5044640F20000E2
:103AF000C2F2000002888D1E20462946FFF7CAFB4D
:103B00006053BDE8B040704740F6244441F6B0250C
:103B100040F6C866C4F20004C2F20005C2F2000614
:103B200020682860FFF778F9306A01303062206839
:103B30002968401AB067012002F042F8F0E700005F
:103B400040F6244441F6B42540F6C866C4F20004A9
:103B5000C2F20005C2F2000620682860FFF794F95F
:103B6000306B0130306320682968401AC6F8800045
:103B70000A2002F025F8EFE770B5054600284FF05F
:103B8000000008BF70BD0C46032917D340F20000A7
:103B9000C2F200000288A61E28463146FFF77AFBD3
:103BA000A95DC2B291421CBF002070BD611911F81D
:103BB000011CA1EB1020B0FA80F0400970BD00009C
:103BC00040F6244441F6B82540F6C866C4F2000425
:103BD000C2F20005C2F2000620682860FFF784FDEB
:103BE000B06A0130B06220682968401AF06701208D
:103BF00001F0E6FFF0E7000040F6244441F6BC2562
:103C000040F6C866C4F20004C2F20005C2F2000623
:103C100020682860FFF7A6FDB0690130B061206818
:103C20002968401A7067012001F0CAFFF0E7000020
:103C300010B504460078552801D1607800B110BD58
:103C400020460C21FFF798FF002808BF10BD206810
:103C50006168A26840F6F073C2F20003C3F8622004
:103C6000C3F85E10C3F85A0010BD000010B504463A
:103C70000078552801D1607800B110BD204622217E
:103C8000FFF77AFF002808BF10BD40F2D810C2F23B
:103C90000000163021462222FCF7ECFA10BD00008D
:103CA00080B50146007855280BD14878002818BF08
:103CB00080BD40F21420C2F200002B302D22FCF710
:103CC000D9FA80BD2DE9F04FBFB00C4605466846D5
:103CD000FA21FCF73EFB002C5FD040F2142640F2A4
:103CE000780840F6C869C2F20006C2F20008C2F2C3
:103CF0000009EA4606F1580B06E00020C6F828083D
:103D0000013C05F1010548D0287855280ED1687886
:103D100060B928686968AA68C8E90A01D9F840004A
:103D2000C8F830200130C9F8400000BF2878AB281F
:103D3000E6D16878A128E3D1AF78E91C50463A462D
:103D4000FCF798FA50463946FEF7C2FFD6F8280825
:103D50003918033109097C29CFD8411CC6F8281825
:103D6000AB210BF80010D6F828083A46411CC6F8DB
:103D70002818A1210BF80010D6F82808411CC6F815
:103D800028180BF80070D6F8280851465844FCF75C
:103D900071FAD6F828083844B0E73FB0BDE8F08F94
:103DA00010B504460078552801D1607800B110BDE7
:103DB00020462221FFF7E0FE002808BF10BD40F694
:103DC000C850C2F20000163021462222FCF752FAF7
:103DD00010BD0000B4EE410AF1EE10FAB4EE600A34
:103DE000C8BFB0EE410AF1EE10FAB8BFB0EE600AFB
:103DF0007047000010B5B0F5007F1EDDA0F2012372
:103E0000082B33D8DFE813F009007C008C009C00FD
:103E10001801AC00BC00D000E00040F64850C2F2EF
:103E20000000036B07310133036340F64C20C2F2FC
:103E300000003630FCF71EFA10BDB0F5807F46DC7E
:103E4000012800F0D180032840F0F68040F6485069
:103E5000C2F20000836807310133836040F64C20D2
:103E6000C2F200000C30FCF705FA10BD40F201333D
:103E7000984200F0C88040F20333984218BF10BD4A
:103E800040F64850C2F20000836F40F64C240133E4
:103E9000C2F200048367073104F19100FCF7EAF9EC
:103EA00040F21420C2F200000121C170D4F8911038
:103EB000BFEE001A00EE101AD4F8952030EE010A79
:103EC00010EE101AC0F80510C0F8092010BD40F21D
:103ED0000113984200F0B180B0F5827F40F0AC80D1
:103EE00040F64850C2F20000036A07310133036212
:103EF00040F64C20C2F200003430FCF7BBF910BD94
:103F000040F64850C2F20000836B073101338363EF
:103F100040F64C20C2F200005130FCF7ABF910BD66
:103F200040F64850C2F20000036C073101330364CD
:103F300040F64C20C2F200006130FCF79BF910BD46
:103F400040F64850C2F20000836C073101338364AD
:103F500040F64C20C2F200007130FCF78BF910BD26
:103F600040F64850C2F20000036D0731013303658B
:103F700040F64C20C2F200007230FCF77BF910BD15
:103F800040F64850C2F20000836D01338365087A21
:103F90000731012840F64C20C2F200000CBF7330FC
:103FA0007A30FCF767F910BD40F64850C2F20000C5
:103FB000036E07310133036640F64C20C2F2000065
:103FC0008130FCF757F910BD40F64850C2F20000AE
:103FD000836E07310133836640F64C20C2F2000045
:103FE0008730FCF747F910BD40F64850C2F2000098
:103FF000036807310133036040F64C20C2F2000031
:10400000FCF738F910BD40F64850C2F20000036FCB
:10401000063A01330367D1F8070040F64C23C2F299
:104020000003C3F88B00B1F80B000D31A3F88F002B
:1040300003F1A000FCF71EF910BD40F64850C2F293
:104040000000836907310133836140F64C20C2F2DE
:1040500000002C30FCF70EF910BD00008178C0780C
:1040600040EA01221046CFF6FF70090658BF1046FD
:10407000704700000088000400BA704780B5027ED7
:1040800001600AB1021D05E00022026101220276F0
:1040900000F114021268D0F80CC08B1A0CEBDC7E15
:1040A0000022A2EB6E029342836002DA0CEB030261
:1040B00004E0B3EB6E0F02DDA3EB0C02826090ED27
:1040C000020A90ED041AB8EEC00A31EE000A80ED43
:1040D000040A416080BD00000023C0E90033C0E94C
:1040E000032341610376704780B5014651F8180BF0
:1040F000FCF7D6FD80BD0000DDF800C0016080F84F
:10410000202080F8213080F822C0704780B582B02E
:10411000D0F82C2890F800C0116000F12B0100F1BC
:1041200058034FF0100E10462D22CDF800C0CDF8E8
:1041300004E000F0A7FC02B080BD000080B5D0F81C
:104140002C0800F071FD80BD70B5044640F63D209E
:10415000C4F247004EF24811C4F8300845F22A5024
:10416000CBF63A7120600920C4F834182071601D24
:104170002421FCF7CCF84AF60020C0F25500C4F820
:1041800029004FF41060A4F82D0004F12F00242121
:10419000FCF7BDF8AA20002684F857002920C4F8AF
:1041A000536000F04DFE054600F05CFD2046C4F86B
:1041B0002868C4F82C5870BD80B582B0826E431C4C
:1041C000116000F15A0159204FF0040C0090104684
:1041D0000C22CDF804C000F055FC02B080BD0000F8
:1041E00080B5806E00F020FD80BD0000B0B50446B3
:1041F00045F2595020800020A0705520A4F85A00A4
:104200004FF42A40A4F86400292000F019FE054666
:1042100000F028FD2046A566B0BD000080B582B044
:10422000826B431C116000F1160115204FF0200C29
:10423000009010462222CDF804C000F023FC02B00A
:1042400080BD000080B5806B00F0EEFC80BD0000FA
:10425000B0B5044645F2155020800020A0705520CE
:10426000E0824FF42A40E086292000F0E9FD05466F
:1042700000F0F8FC2046A563B0BD00000279017192
:104280004271704782788170C270704710B50446E1
:10429000012000F0D5FD00F0C9FD606110BD0000F7
:1042A0000278017042707047B0B52DED108B044656
:1042B000502000F0C5FD46F20045C4F20005294635
:1042C0000122242300F0D0FBE060202000F0B8FDA4
:1042D0009FED75AA9FED758A9FED75BAB0EE4A0AFB
:1042E000F0EE480AB0EE481AF0EE4B1A00F02AFD44
:1042F000E168C8623C2000F0A3FD9FED6E9AB2EE2B
:1043000004CAB0EE490AF0EE4B0AB0EE4B1AF0EEDA
:104310004C1AB0EE4A2AF0EE4A2AB0EE4B3AF0EED2
:104320004B3A00F0D1FAE16848633C2000F088FD88
:104330009FED61EAF0EE4B0AB0EE4E0AB0EE4B1A7A
:10434000F0EE4C1AB0EE4A2AF0EE4A2AB0EE4B3AA2
:10435000F0EE4B3A00F0B8FAE16808631C2000F078
:104360006FFD00214FF40052FFF7B6FEE16848648C
:10437000382000F065FD9FED51DA9FED51FA0121E3
:10438000B0EE480AF0EE4D0AB0EE4F1AF0EE491AC0
:1043900000F0C2FCE1688863382000F051FDDFEDD9
:1043A000498AF6EE009A0121B0EE480AF0EE4D0A75
:1043B000B0EE681AF0EE691A00F0AEFCE168C8636E
:1043C000502000F03DFD29460222242300F04CFB42
:1043D0002061202000F034FDB0EE4A0AF0EE480AD9
:1043E000B0EE481AF0EE4B1A00F0ACFC2169C8623E
:1043F0003C2000F025FDB0EE490AF0EE4B0AB0EE8D
:104400004B1AF0EE4C1AB0EE4A2AF0EE4A2AB0EE01
:104410004B3AF0EE4B3A00F057FA216948633C20E2
:1044200000F00EFDB0EE4E0AF0EE4B0AB0EE4B1A65
:10443000F0EE4C1AB0EE4A2AF0EE4A2AB0EE4B3AB1
:10444000F0EE4B3A00F040FA216908631C2000F0BE
:10445000F7FC00214FF40052FFF73EFE216948644B
:10446000382000F0EDFC0121B0EE480AF0EE4D0AD4
:10447000B0EE4F1AF0EE491A00F04EFC2169886345
:10448000382000F0DDFC0121B0EE480AF0EE4D0AC4
:10449000B0EE681AF0EE691A00F03EFC2169C863BC
:1044A000BDEC108BB0BD00BF00401C466F12833ABC
:1044B000000000000AD7233C00002F4417B7D13872
:1044C000CDCC4C3FA69B443B82798171C271704731
:1044D000F0B581B041F6C42C41F6F02E46F6000648
:1044E00046F20045C2F2000C4FF40071C2F2000E19
:1044F00000230C30C4F20006C4F20005CCF81810FA
:10450000CEF81810CCF82730CCF82330CEF827306E
:10451000CEF8233008E00EEB440209BA090CA2F8E9
:1045200021100133022B27D050F82320116B946CFB
:1045300091ED030A611EBDEEC00A032910EE101AA8
:1045400008D8126CB242E6D0AA42EAD10CEB44027F
:10455000E3E700BF671F032FE3D8126CB24204D019
:10456000AA42DED10CEB440201E00EEB440209BA90
:10457000090CA2F81910D4E741F6C425C2F20005CF
:104580002846FFF7B1FD41F6F024C2F200040646CA
:104590002046FFF7A9FD042E0CD129688A6842F055
:1045A00080028A608A6842F400428A608A6842F423
:1045B00000028A6004280CD12068816841F08001E3
:1045C0008160816841F400418160816841F40001AB
:1045D000816040F2FF10A861A0610020C5F82700AB
:1045E000C5F82300C4F82700C4F823002846FFF7C5
:1045F0007BFD06462046FFF777FD042E03D00428F6
:1046000010D001B0F0BD29688A6842F080028A604B
:104610008A6842F400428A608A6842F400028A6032
:104620000428EED12068816841F0800181608168B2
:1046300041F400418160816841F40001816001B072
:10464000F0BD0000D0E9031081ED030AC0ED030ABC
:1046500070470000B0B50446007948B1082500BF96
:104660006019406800F0C0F90435102DF8D108E059
:1046700008200021221852680430126B1028D160E3
:10468000F8D1B0BD90F82430D0F828C04FF47A7239
:10469000B2FBF3F2A1EB0C03934298BF7047026A9E
:1046A000816201320262704790F83830D0F83CC025
:1046B0004FF47A72B2FBF3F2A1EB0C03934298BF72
:1046C0007047426BC16301324263704710B50446C4
:1046D000FFF7EAFD2046FFF7D9FD10BD00218180DC
:1046E0000160704780B582B0426B431C116000F1DD
:1046F000380127204FF0020C00901046FA22CDF826
:1047000004C000F0BFF902B080BD000080B5406B6E
:1047100000F08AFA80BD0000B0B5044645F227508B
:1047200020800020A070552020854FF42A4060860C
:10473000292000F085FB054600F094FA20466563C9
:10474000B0BD000080B582B0826B431C116000F1E7
:10475000160115204FF0080C009010462222CDF8CB
:1047600004C000F08FF902B080BD000080B5806BFE
:1047700000F05AFA80BD0000B0B5044645F215506D
:1047800020800020A0705520E0824FF42A40E0866F
:10479000292000F055FB054600F064FA2046A56389
:1047A000B0BD000041F21400C4F20200016881F4BF
:1047B000004101607047000041F21400C4F20200A1
:1047C000016881F4005101607047000041F2180057
:1047D0000029C4F2020007BF4FF4006141804FF48A
:1047E000805101807047000041F218000029C4F296
:1047F00002004FF480410CBF4180018070470000EF
:1048000041F218000029C4F202004FF400510CBF1D
:10481000418001807047000010B590ED0A1AB0EE9B
:10482000C02AB4EE412A0446F1EE10FA80ED070AE0
:1048300004DA94ED091A31EE001A01E09FED211A15
:1048400084ED091A94ED002A94ED0C1A22EE000A68
:10485000F1EE410AFFF7BEFA84ED040A94ED010A75
:1048600094ED092A94ED0D1A20EE020AF1EE410AA8
:10487000FFF7B0FA94ED072A94ED083A84ED050AA3
:1048800094ED020A94ED0E1A32EE432A20EE020A4B
:10489000F1EE410AFFF79EFA94ED042A94ED053AF1
:1048A00094ED0B1A32EE032A84ED060A30EE020A6A
:1048B000F1EE410AFFF78EFAE06984ED030A206207
:1048C00010BD00BF0000000000F1280180EC030AC9
:1048D000C1EC041A00214162C0E90311C0E90511CD
:1048E000C161C0ED0E3A7047017A81B190ED001AB6
:1048F00090ED012AB7EE003A22EE011A33EE422A79
:1049000022EE000A31EE000A80ED000A7047012114
:1049100080ED000A01727047B0B554210446FBF7E0
:1049200018FD4FF0FF406065292000F089FA054628
:1049300000F098F92046A565B0BD000080B582B0B2
:104940000246006A4FF0010C0160002100911146FF
:1049500012220023CDF804C000F094F802B080BD0C
:10496000B0B50446292000F06BFA054600F07AF94C
:1049700020462562B0BD000010B52DED028BB0EED3
:10498000408A0229044605D0012906D061B994ED78
:10499000040A05E084ED088A04E0A06B00F094F9B5
:1049A00020EE088A84ED028ABDEC028B10BD000067
:1049B00010B52DED028BB0EE408A0229044605D0D9
:1049C000012906D061B994ED050A05E084ED098A54
:1049D00004E0E06B00F078F920EE088A84ED018AAB
:1049E000BDEC028B10BD000010B590ED020A90EDF9
:1049F000031A0446406B31EE400AFFF70DFFD4E97D
:104A00000C0194ED011A91ED030A84ED000A30EED9
:104A1000410AFFF701FF10BD10B50446406CFFF7D7
:104A20002DFB606C90ED040AA06B84ED040A00F08D
:104A300021F9A06B00F048F984ED060A10BD0000D2
:104A400010B590ED0A1A0446B8EE411A80EE010A3C
:104A5000C06B84ED050A00F00DF9E06B00F034F94D
:104A600084ED070A10BD000010B50446016483629E
:104A70000020C4E9122020462821FBF76AFC2046CA
:104A800010BD00002DE9F047056844F6FF74C4F23C
:104A90000004DDE908EC46F21008A54248F20004E3
:104AA000C4F20208C2F2200420DC44F20046C4F240
:104AB0000006B54239D044F60004C4F20004A54211
:104AC0003ED044F60044C4F20004A54263D148F24B
:104AD000200441F28A4508F1300608F16009C2F26B
:104AE00000044FF4FA77C2F200054CE045F20006EC
:104AF000C4F20006B54204F1FC6A30D041F200066F
:104B0000C4F20106B54234D041F20046C4F20106B7
:104B1000B54240D141F6720508F5836608F5926901
:104B20004FF4FA77C2F200052DE041F2A20508F138
:104B3000780608F190094FF4FA77C2F2000522E0F6
:104B400048F2000441F2962508F1180608F14809D8
:104B5000C1F600044FF4FA77C2F2000513E041F207
:104B60007E6508F1A8094FF4FA77C2F200054646BF
:104B700008E041F2700508F5866608F59569322768
:104B8000C2F200055446C560002546604782858212
:104B9000C0F81A90446281600282C0F81E30A0F80A
:104BA00022E080F828C0BDE8F0870000B0B50446D8
:104BB000458A4068FCF71EFAA18A228B638A114459
:104BC0008AB2281A9A42E082218304D3B2FBF3F21C
:104BD00002FB13112183218B82B28A420CD9401A25
:104BE000238A82B29A42A0821BD8E368A068194443
:104BF000FBF740FBA08AB0BD1844401A258A83B257
:104C0000AB42A0820DD8E568A06829449A1AFBF748
:104C100031FBA08AA368E28AE1681844801AFBF796
:104C200029FBA08AB0BD000010B50446D0F81A00D8
:104C3000FCF7DCF9002818BF10BDD4F81A00616A2F
:104C4000FCF784F8D4F81A000021FCF799F8D4F89E
:104C50001A00D4F81E10C160618C41600121FCF77C
:104C60008FF810BD10B529210446FBF750FB2046F4
:104C700010BD000010B5044690F8340030B100209B
:104C800084F83400A06984ED090AA06284ED050A65
:104C9000D4E90901C4E90B01204600F005F82046DB
:104CA00000F016F810BD00000178012918BF704708
:104CB00090ED020A90ED0C1AC16A31EE000AC16152
:104CC00080ED080A7047000090ED090A7047000067
:104CD0000178012918BF704790ED030A90ED082A6A
:104CE00090ED051A90ED073A32EE000A22EE000A26
:104CF00031EE431A20EE011A33EE011AB7EE003AF4
:104D000080ED040A33EE400A22EE000A80ED091A13
:104D100080ED0A0A7047000001700021C0ED060A0C
:104D200080ED010A80ED021A0161C0E90711C0E9B6
:104D30000911C0E90B11012180F83410C0ED031AEC
:104D40007047000000F10C0181EC030A0021816131
:104D5000C0E900118160C0ED071A7047B0B5044684
:104D6000992046F2A57184F8720004F5BE70C4F86B
:104D70007C110521FEF772FE40F20730A4F8810194
:104D800000204FF00111C4F8E602C4F8EA02A4F8CA
:104D9000EE02C4E9BC110121A4F8F812C4E9000034
:104DA000C4E90200C4E90400C4E90600A086C4E91D
:104DB0000800C4E90A002063C4F83600C4F83A00C9
:104DC000C4F83E00C4F84200C4F84600C4F84A00E3
:104DD000C4F84D0004F15100212104F17305FBF7E3
:104DE00096FA28462D21FBF792FA04F1A0007121D2
:104DF000FBF7AFFA04F211106721FBF788FA2920BC
:104E000000F01EF80546FFF72DFF2046C4F8785144
:104E1000B0BD000080B50020C4F202000421FCF700
:104E2000CBF9B0FA80F0400980BD0000002101708C
:104E3000704741F6C020C2F20000006870470000D1
:104E400010B50446002808BF012400BF2046FBF728
:104E5000BDFA002818BF10BDFFF7EBFF08B180476F
:104E6000F4E7002010BD000080B540F2D810C2F277
:104E70000000FFF7EDF980BD80B540F6C850C2F2E2
:104E80000000FFF779FC80BD80B540F6F070C2F2FB
:104E90000000FFF7ABF980BD80B540F27800C2F2A8
:104EA0000000FFF739FC80BD80B540F2B010C2F2BF
:104EB0000000FFF755FD80BD80B540F69470C2F24A
:104EC0000000FFF729FD80BD80B540F21420C2F23A
:104ED0000000FFF739F980BD80B540F64C20C2F2E2
:104EE0000000FFF73BFF80BD80B540F60460C2F2D2
:104EF0000000FFF7F3FB80BD80B54FF44070FCF776
:104F000095F9FCF7F5FAFCF7C7F8FCF7CBF9FCF7D5
:104F100035FBFCF705FDFCF77FFDFCF727FEFCF7F2
:104F20009DFBFCF747FCFCF7CFFE642000F008F87F
:104F3000FBF7CEFBFBF72AFC642000F001F880BDF4
:104F400010B5002808BF10BD044600BF4FF47A70AA
:104F500000F004F8013CF9D110BD000080B54EF21C
:104F60001801CEF20001A82251F804CC00FB02FE89
:104F7000086800230A689042FCD003449B1A9042C0
:104F800098BF63447345104628BF80BDF2E7000018
:104F900080B5FFF7B1FFFDF771F8002080BD00007C
:104FA000F0B581B00D4644F6C02141F62036C2F27C
:104FB0000101C2F200060F6831680446081D00F0C6
:104FC000F9FC10B1601C0FD019E0306844F6CC1227
:104FD000C06AC2F201020121136801FA00F023EA5B
:104FE00000001060601C0AD14DB13068011D44F60C
:104FF0009820C2F2010000F031FD01B0F0BD306830
:10500000E41944600AD341F63030C2F2000000686F
:105010003168043100F004FD01B0F0BD41F62830E4
:10502000C2F2000000683168043100F0F9FC44F677
:105030003020C2F2010001688C4238BF046001B028
:10504000F0BD000070B5044600F020FD44F6B81035
:10505000C2F20100016841F6203501310160C2F25F
:105060000005296844F68C26C2F2010641B1306879
:1050700060B92868E16AC06A884298BF2C6005E080
:105080002C600068012801D100F0AEF944F6C81088
:10509000C2F20100016844F6CC12013101602164C2
:1050A000E06AC2F2010201211368814019431160D4
:1050B00041F6383100EB8000C2F2000101EB8000C4
:1050C000211D00F0CBFC00F0F1FC306880B12868B5
:1050D000E16AC06A884228BF70BD4EF60450CEF225
:1050E00000004FF080510160BFF34F8FBFF36F8F0F
:1050F00070BD000070B500F0C9FC44F6C426C2F2D1
:105100000106306810B100F0D1FC70BD44F6D01437
:10511000C2F20104204600F073FC44F6E415C2F22A
:105120000105284600F06CFC41F62430C2F2000074
:10513000046041F63430C2F2000005600A201021FC
:10514000002200F05DFF00283060DCD002A100F0FA
:1051500001FD00F0ABFC70BD546D72510000000009
:10516000F0B581B044F6BC15C2F20105286828B339
:1051700044F6AC2644F6B817C2F20106C2F20107A3
:1051800002E000BF2868C8B100F00CFE346801F0EE
:10519000E7FA002CF6D000F079FCF068C468201D16
:1051A00000F008FC38680138386028680138286049
:1051B00000F07CFC204600F055F8E3E701B0F0BDBC
:1051C00080B5026C002A08BF80BDC368D0F804C057
:1051D0001344C360634524BF0368C360C3680846C3
:1051E0001946FBF747F880BD70B5866B036C044623
:1051F000E3B115461AB3E0681A46FBF73BF8E168DD
:10520000206C2268091A9142E16003D26168404231
:105210000844E060A81EB0FA80F040093146002E34
:1052200018BF01210840361A002516E02068002525
:1052300098B9606801F0E4F9656005460DE0A06882
:105240001A46FBF717F8216CD4E901200025084421
:10525000A060904224BF2068A060711C2846A16312
:1052600070BD000010B50446006B00F02DFC204618
:1052700000F02AFC10BD000041F62431C2F200010A
:1052800009680A68B2FA82F35B090360002A0EBF5C
:105290000020C8680068704741F6B850C2F20000AC
:1052A000C21D22F0070210F0070CA0EB020318BF8A
:1052B000104644F69022C2F201020021C2E9000128
:1052C0004FF49632BCF1000F18BF03F5963202443A
:1052D000083A41F62C3322F00702C2F200031A60AA
:1052E000C2E90011111A1A68C0E9002144F62C2005
:1052F000C2F20100016044F62420C2F20100016004
:1053000044F6F810C2F2010001210170704700005C
:1053100041F638344EF60455C2F20004CEF20005D0
:105320004FF08056FFF71CFF20680228FAD32E604A
:10533000BFF34F8FBFF36F8FF4E70000B0B5049D4C
:10534000002914BF2A602D60C5E90F0128460121FC
:105350001C4600F02FFF85F84C40B0BD2DE9F0470A
:105360000A9C8246206B16460F46DDE908599100DB
:10537000A5229846FAF7C3FF206B00EB860004389D
:1053800020F00706002000BF395C221882F8341094
:10539000395C19B1092800F10100F5D30027201D5F
:1053A00084F83D701F2D28BF1F25E562C4E9125700
:1053B00000F032FB04F1180000F02EFBC5F12000D4
:1053C000A06130465146424624616462276584F8F4
:1053D000547000F0DBFAB9F1000F206018BFC9F873
:1053E0000040BDE8F0870000B0B541F63835002434
:1053F000C2F20005281900F003FB1434B4F5207F35
:10540000F8D144F6FC14C2F20104204600F0F8FA88
:1054100044F61025C2F20105284600F0F1FA44F6E0
:105420003820C2F2010000F0EBFA44F6AC20C2F2E0
:10543000010000F0E5FA44F69820C2F2010000F005
:10544000DFFA41F62830C2F20000046041F6303045
:10545000C2F200000560B0BD80B544F69022C2F2F1
:10546000010200BF114612688242FBD3D1F804C08A
:1054700001EB0C03834203D1406860444860084656
:10548000D0F804E000EB0E03934201D0026010E07C
:1054900041F62C33C2F20003D3F800C0624506D0B7
:1054A0000B6852681B687244C0E9003201E0C0F822
:1054B00000C0814218BF086080BD000080B58C46E6
:1054C000014641F804CF9445006108D99A4201D2BF
:1054D0009C4511D241F62430C2F2000007E08069F9
:1054E000D21A824208D241F63430C2F2000000687B
:1054F00000F096FA002080BD012080BD10B5044662
:1055000000F0C4FAA06BB0FA80F0440900F0CEFAC3
:10551000204610BD10B5044600F0B8FAA06BE16B50
:10552000401AB0FA80F0440900F0C0FA204610BDDD
:1055300008480068006880F308884FF0000080F396
:10554000148862B661B6BFF34F8FBFF36F8F00DF71
:1055500000BF00BF08ED00E070B582B041F6243214
:10556000C2F2000212680546D2680E46D468201DB9
:1055700000F020FAE06901280FD1A06932464119F4
:1055800020462B46FFF79AFF38B10026204600211F
:105590002A460023009601F089F9616A204688476F
:1055A00002B070BD2DE9F04387B044F6C427C2F2C3
:1055B0000107386803A9002200234FF0000800F01B
:1055C00039FD002851D002AC4FF0010903AD10E0C5
:1055D00010F4047F43D004981346B061811830461C
:1055E000FFF76CFF386829460022002300F022FDF7
:1055F000D8B30398B0F1FF3F03DCDDE9042006993E
:10560000904703980028EDD4059E706910B1301DB5
:1056100000F0D0F9204600F07FF803990929E1D87D
:10562000024609FA01F010F0C70FD1D0049BB0690F
:10563000C1183046FFF742FF0028D3D0716A3046C8
:105640008847F0690128CDD10498B16900230A1870
:1056500030460021CDF8008001F028F9C2E7052985
:10566000C0D1304600F030FABCE707B0BDE8F083A7
:1056700070B582B00E46044600F094FB01A800F01D
:105680004BF8019919B101F06BF802B070BD0546F5
:105690004EB9A54207D301F063F820462946FFF72B
:1056A0005BFF02B070BD4EB141F63430C2F2000073
:1056B00000680068B0FA80F0420900E0002244F679
:1056C000C420C2F201000068611B00F057FA01F02B
:1056D00047F80028D9D14EF60450CEF200004FF022
:1056E00080510160BFF34F8FBFF36F8F02B070BD69
:1056F00041F62830C2F200000168096821B1006853
:10570000C068C068406801E04FF0FF3044F63021C7
:10571000C2F201010860704770B5044600F0C4FE93
:1057200041F61C36C2F2000631680546884203D2B3
:1057300000F008F8012000E00020206028463560D5
:1057400070BD00002DE9F04182B041F62437C2F26D
:1057500000073868016831B34FF000080BE000BF64
:105760002046002132460023CDF8008001F09EF84B
:1057700038680168B9B1C068C4680668251D284644
:1057800000F018F9616A20468847E0690128EFD1E6
:10579000A0693044B042E3D960603868294624618A
:1057A00000F03EF9E4E741F63431C2F200010A6844
:1057B00008603A6002B0BDE8F081000081B00020CE
:1057C00000904FF0500080F31188BFF36F8FBFF34C
:1057D0004F8F00BF00980028FCD001B07047000038
:1057E00000EA010022B1401AB0FA80F04009704787
:1057F000002818BF0120704782B001AC2046FFF797
:105800003BFD0199FFF734FFFFF7CCFEF6E7000000
:10581000F0B581B0044600F039F994F94560012EE5
:105820000FDB04F1240500BF286850B1284600F0C2
:1058300027FF002818BF00F0DDF970B2013E0128F3
:10584000F2DCFF2684F8456000F030F900F01EF924
:1058500094F94470012F0EDB04F11005286850B153
:10586000284600F00DFF002818BF00F0C3F978B2F9
:10587000013F0128F2DC84F8446000F017F901B020
:10588000F0BD00002DE9F047044600F08BFA41F628
:105890002C3AC2F2000ADAF80000002808BFFFF72D
:1058A000FBFC44F6F810C2F201000578002D18BF89
:1058B0004FF00045254201D0002455E044B104F1E9
:1058C000080010F007011ABF601A00F11004044626
:1058D00044F62428C2F20108D8F80090601E48451A
:1058E00017D244F69020C2F201000668374657F8F6
:1058F000041FA14213D2306868B100BF3046366839
:10590000374657F8041FA14209D23268002AF5D160
:1059100005E0002428E044F69020C2F20100DAF805
:10592000002096421FD0D0F800A03268091B112930
:10593000026004D3301941603C60FFF78DFD44F6EE
:105940002C213868C2F201010B68A9EB0002284340
:105950000AF108049A42C8F8002038BF0A6038608B
:105960000020306000E0002400F0FAFE2046BDE890
:10597000F087000041F62030C2F20000016819B142
:105980000168CA6C0132CA6400687047034645F278
:10599000BD70C0F600004FF0807C21F0010103E9EA
:1059A00003106FF0020043F8240CA3F1440043F805
:1059B000202C7047D0E90123016993604B68D0F82F
:1059C00008C08342CCF8042001D182684A600B6889
:1059D00000220261581E08607047000041F6203125
:1059E000C2F20001086880690A68D26A0968C2F1D7
:1059F00020028A617047000080B500F01FFA80BD68
:105A00004FF0FF31024642F8081F0021C0E903228F
:105A1000C0E90012704700000021016170470000DA
:105A200080B5D1F800C01CF1010207D000F10803D5
:105A30009E465B681A686245FAD901E0D0F810E02A
:105A4000DEF8042008614A6091600268C1F808E04D
:105A5000CEF80410511C016080BD00004268D0F8EF
:105A600000C093684A608B609368916059600861D8
:105A70000CF1010101607047DFF80C00016841F48E
:105A800070010160704700BF88ED00E04FF05000EA
:105A900080F31188BFF36F8FBFF34F8F40F2080080
:105AA000C2F20000016801310160704740F2080055
:105AB000C2F2000001680139016018BF7047002080
:105AC00080F3118870470000B0B538B3044644F63F
:105AD000F810C2F20100007854F8041C002818BF26
