:020000040800F2
:10000000A06B0120350200083D020008D91100084C
:1000100041020008430200084502000800000000F9
:10002000000000000000000000000000E1130008D4
:100030004902000800000000611200080D150008C8
:100040004F0200084F0200084F0200084F0200084C
:100050004F0200084F0200084F0200084F0200083C
:100060004F0200084F0200084F0200084F0200082C
:100070004F0200084F0200084F0200084F0200081C
:100080004F0200084F0200084F020008A9070008AD
:10009000990700084F0200084F0200084F020008AD
:1000A0004F0200084F0200084F0200084F020008EC
:1000B0004F0200084F0200084F0200084F020008DC
:1000C0004F0200084F0200084F0200084F020008CC
:1000D0004F020008F91900084D1B0008A91C000870
:1000E0004F0200084F0200084F0200084F020008AC
:1000F0004F0200084F0200084F0200084F0200089C
:100100004F0200084F0200084F0200084F0200088B
:1001100095170008011900084F0200084F02000857
:100120004F0200084F0200084F0200084F0200086B
:100130004F0200084F0200084F0200086D08000837
:100140005D0800084F0200084F0200084F02000837
:100150004F0200084F0200084F020008011E00086D
:100160004F0200084F0200084F0200084F0200082B
:100170004F0200084F0200084F0200084F0200081B
:100180004F0200084F02000800F002F800F042F8A9
:100190000AA090E8000C82448344AAF10107DA45E2
:1001A00001D100F037F8AFF2090EBAE80F0013F0F2
:1001B000010F18BFFB1A43F0010318471494000005
:1001C00034940000103A24BF78C878C1FAD8520796
:1001D00024BF30C830C144BF04680C6070470000C1
:1001E0000023002400250026103A28BF78C1FBD840
:1001F000520728BF30C148BF0B6070471FB508F0D9
:100200005AFF9DE8030000F09BF900F0CDF81FBDF8
:1002100010B510BD00F0CFF91146FFF7EFFF04F065
:1002200099FF00F007FA03B4FFF7F2FF03BC00F0F8
:1002300061F900000948804709480047FEE7FEE7EA
:10024000FEE7FEE7FEE7FEE7FEE7FEE7FEE7FEE786
:1002500004480549054A064B70470000151500087B
:1002600089010008A0470120A06B0120A0670120A0
:10027000A0670120032A40F2308010F0030C00F048
:10028000158011F8013BBCF1020F624498BF11F8D0
:1002900001CB00F8013B38BF11F8013BA2F1040289
:1002A00098BF00F801CB38BF00F8013B11F0030301
:1002B00000F0ED80083AC0F0088051F8043B083A9D
:1002C00051F804CBA0E80810F5E7121D5CBF51F807
:1002D000043B40F8043BAFF30080D20724BF11F881
:1002E000013B11F801CB48BF11F8012B24BF00F8E6
:1002F000013B00F801CB48BF00F8012B704702F02A
:10030000FF0343EA032242EA024200F024B84FF01E
:1003100000020429C0F0128010F0030C00F01B80D2
:10032000CCF1040CBCF1020F18BF00F8012BA8BFE0
:1003300020F8022BA1EB0C0100F00DB85FEAC17CA4
:1003400024BF00F8012B00F8012B48BF00F8012B57
:1003500070474FF0000200B5134694469646203988
:1003600022BFA0E80C50A0E80C50B1F12001BFF46E
:10037000F7AF090728BFA0E80C5048BF0CC05DF8D4
:1003800004EB890028BF40F8042B08BF704748BF22
:1003900020F8022B11F0804F18BF00F8012B704796
:1003A000704770477047000070B5064C7C44064D9E
:1003B0007D4404E02046016808448047241DAC4287
:1003C000F8D170BD409200004092000070B5064622
:1003D00000F096F8056806F10B0020F00704B4421F
:1003E0009CBF002070BD2B466A68BAB11068A0425D
:1003F00010D304F1080188423CBF5068586007D30D
:100400005168101941601168091B0160586014603F
:10041000101D70BD13465268002AE7D121462846B8
:1004200000F07AF80028DED170BD70B50446051FD3
:1004300000F066F80068002C14BF446870BD002C02
:1004400018BFAC423CBF20466468F8D301680A1864
:10045000AA4218BF456003D12A68054611440160CD
:1004600028684119A1421CBF6C6070BD6168696059
:1004700021680844286070BD10B500F045F8006898
:1004800010BD10B5044600F03FF8046010BD10B573
:10049000203AC0F00B80B1E81850A0E81850B1E83D
:1004A0001850A0E81850203ABFF4F5AF5FEA027C7C
:1004B00024BFB1E81850A0E8185044BF18C918C0AC
:1004C000BDE810405FEA827C24BF51F8043B40F84D
:1004D000043B08BF7047D20728BF31F8023B48BF32
:1004E00011F8012B28BF20F8023B48BF00F8012B70
:1004F0007047000001491820ABBEFEE7260002004D
:100500000048704718000020004870471000002085
:10051000704770477047704738B504460A46002058
:100520006946AFF30080002808BF38BD0246009935
:10053000204600F065F8012038BD012000F088B8A1
:10054000F8B5AFF30080054600200C46102000BF30
:100550000646A819A0420DD9324669460020AFF3DD
:100560000080070008BF00F073F80098A04218BF91
:100570000546C419FFF7C4FF05600746F01D20F0CB
:1005800007004619284600F00AF8B44208BFF8BD33
:10059000A21B31463868BDE8F84000F031B80021B0
:1005A0000160C0E901107047102070470048704793
:1005B0001000002070477546FFF7F8FFAE460500B3
:1005C0006946534620F00700854618B020B5FFF76E
:1005D0003FFEBDE820404FF000064FF000074FF00F
:1005E00000084FF0000BAC46ACE8C009ACE8C0090D
:1005F000ACE8C009ACE8C00921F007018D4670479E
:10060000034640688C46002818BF88423CBF03461A
:100610004068F8D318681844884207D00CF10300EA
:1006200020F00700001D411A521A0146081D0A60F9
:10063000FFF7FBBE10B50446AFF300802046BDE8CF
:100640001040FFF7F0BD002801D0FFF753BF7047FF
:1006500010B500F01DF8BDE81040FFF7F4BF70B50D
:1006600005460C460A2000E06D1C00F039F835B153
:1006700028780028F8D102E0641C00F031F814B1A9
:1006800020780028F8D1BDE870400A2000F028B892
:1006900010B5012805D0002103A0FFF7E0FF0120DD
:1006A00010BD09A1F8E7000053494752544D454D8C
:1006B0003A204F7574206F662068656170206D6503
:1006C0006D6F7279000000003A2048656170206DFE
:1006D000656D6F727920636F7272757074656400F6
:1006E00008B569468DF800000320ABBE08BD0000C8
:1006F00070B58AB002200121022500F0E3FD4FF021
:100700000070012100F0EAFD40F20044C4F202044E
:1007100020460821092200F04BFD2046092109222C
:1007200000F046FD4FF44070089008A920468DF86F
:10073000245000F0F9FC40F21450C0F2051007906C
:1007400007A800F04BFDA4F5D034204600F0E6F8F1
:1007500004AD284600F0AAFA4FF48070ADF81A00F4
:100760004FF04270CDF8120003200026ADF81000C3
:1007700020462946CDF8166000F0C6F90020C0F2E8
:100780000110CDF80A006846CDE90066ADF80860B2
:1007900000F0D8F80AB070BD80B546F20040C4F24F
:1007A000000001F071FC80BD7047000070B58AB098
:1007B00002200121022500F085FD4FF0007001218B
:1007C00000F08CFD4FF08060012100F087FD40F2C9
:1007D0000044C4F2020420460621092200F0E8FC8D
:1007E00020460521092200F0E3FC6020089008A9BA
:1007F00020468DF8245000F097FC40F24050C0F2A3
:100800000510079007A800F0E9FCA4F5CE342046B7
:1008100000F084F804AD284600F048FA4FF48070E8
:10082000ADF81A004FF04270CDF8120003200026F8
:10083000ADF8100020462946CDF8166000F064F9A6
:100840000E20C0F20110CDF80A006846CDE900661E
:10085000ADF8086000F076F80AB070BD80B546F6D5
:100860000000C4F2000001F00FFC80BD70470000E2
:10087000B1F5007F1ADA4A1E1F2A32D8DFE802F0EB
:10088000104646394646463C464646464646464655
:100890004646464646464646464646464646463FFF
:1008A00040F20111C0F2010181607047B1F5004FC3
:1008B0000CDAB1F5007F19D0B1F5806F16D0B1F523
:1008C000006F18BF7047002181610FE01AD0B1F5A9
:1008D000803F1CD0B1F5003F02BF1021416070473E
:1008E00014E0402916D0B1F5807F0FD1042141607A
:1008F00070470821C16070471021C160704708210E
:100900000161704700218161042141607047082125
:1009100041607047102101617047000010B546F238
:100920000041C4F200014FF08064884208BF4FF0DC
:1009300000742046012100F0DDFC2046002100F07B
:10094000D9FC10BDB0B546F20061C4F2000190F8C8
:100950000AE0037B0A68012442F001020A60CA69C6
:1009600004FA0EF56FEA050CAA43012BCA610DD0FB
:10097000F3B9CA6802EA0C02CA60C288438843EA33
:10098000024201EBCE031A6403460AE0CA682A4316
:10099000CA600288438843EA024201EBCE031A642C
:1009A000831D82881B8843EA024201EBCE035A640E
:1009B000C27A4B68002A43EA050408BF03EA0C0424
:1009C0004C600389012B04D03BB94A6902EA0C034D
:1009D00002E04A6942EA05034B61407B012802D1EB
:1009E000C8692843C861086820F001000860B0BDEC
:1009F00080B502464069084200F03380FF294FF07D
:100A0000000000F3308001393F2900F26580DFE803
:100A100001F0204D634F63636351636363636363FA
:100A200063536363636363636363636363636363A6
:100A30006358636363636363636363636363636391
:100A40006363636363636363636363636363636376
:100A5000635A906840F20111C0F2010100F082F97E
:100A600080BD002080BDB1F5006F0ADBB1F5803F8D
:100A700015DAB1F5006F2BD0B1F5004F2CD15068CD
:100A800009E0B1F5807F28D0B1F5007F2AD0B1F51B
:100A9000806F21D19069042100F064F980BD26D0D7
:100AA000B1F5003F18BF80BD50680DE0D06804E08C
:100AB000D0681DE0D06807E01069032100F052F90A
:100AC00080BD106914E01069102100F04BF980BD61
:100AD0009069702100F046F980BD9069012100F015
:100AE00041F980BD9069022100F03CF980BD506859
:100AF000082100F037F980BD002A42690CBF22EAC4
:100B0000010111434161704780B5026822F0020281
:100B10000260026842F0010202604FF6FF7200BFFD
:100B2000D0F804C0531E934203D21CF001021A46AF
:100B3000F6D04268D20704BF002080BD91F806C0FD
:100B40000368BCF1010F23F0800208BF43F080026C
:100B5000026091F807C00368BCF1010F23F0400266
:100B600008BF43F04002026091F808C00368BCF17E
:100B7000010F23F0200208BF43F02002026091F829
:100B800009C00368BCF1010F23F0100208BF43F055
:100B90001002026091F80AC00368BCF1010F23F053
:100BA000080208BF43F00802026091F80BC0036816
:100BB000BCF1010F23F0040208BF43F004020260FD
:100BC000CB7891F802C00A791B0691F805E043EA58
:100BD0008C73098843EA024242EA0E5201391143FA
:100BE000C161016821F0010101604FF6FF7100BF92
:100BF00043684A1E8A4203D213F001011146F7D11D
:100C00004068012121EA000080BD000010B500EB22
:100C10000114D4F8B0C11CF004031372D4F8B0E18D
:100C200004F5D87C19BF4FEADE0353604FEA5E53E8
:100C30001360DCF80030002903F002035372D4F88B
:100C4000B43103F00F039372D4F8B4314FEA132395
:100C5000D374D4F8B831D372D4F8B8314FEA13232F
:100C60001373D4F8B8314FEA13435373D4F8B8313F
:100C70004FEA13639373D4F8BC31D373D4F8BC3107
:100C80004FEA13231374D4F8BC314FEA134353745F
:100C9000D4F8BC314FEA136393744FF0100208BFCD
:100CA0000C22815841F02001815010BD0021C0F874
:100CB0000610418140F203218180012101607047CB
:100CC000B0B502468068400109D49068000108D49C
:100CD0009068C0004FF0020058BF042002E00020DE
:100CE00000E00120042808BFB0BD02EB0012D2F8DA
:100CF000803102F5C07E03F00103C2F8803191F823
:100D000008C0BCF1000F03D04B684CEAC30C02E0F2
:100D10000B684FEA435C4B7A8C7ADEF8005043EA6A
:100D20000C032B43CEF8003004F00F038B72D2F883
:100D3000845125F00F05C2F88451D2F884512B4319
:100D4000C2F88431D1F80B30C2F88831D1F80F10D5
:100D5000C2F88C11DEF8001041F00101CEF800104D
:100D6000B0BD0000084018BF0120704746F20002E5
:100D7000C4F2020202F58263984240F67D7002F5E9
:100D80008062C0F67D703CBF46F20002C4F20202EF
:100D90008B0000EA010054BF9060D06070470000F3
:100DA0000268002942F0010308BF22F0010303603A
:100DB00070470000016821F001010160002101601D
:100DC00041608160C160016146F20F41C4F20201DD
:100DD00088424FF02101416122DC46F26F01C4F2EA
:100DE0000201884240DC46F23F01C4F2020188421F
:100DF0006FDC46F21001C4F20201884200F0C280AA
:100E000046F22801C4F20201884201BF46F20800FE
:100E1000C4F202004FF47461016008BF7047F4E04F
:100E200046F26F41C4F20201884238DC46F23F418B
:100E3000C4F20201884262DC46F21041C4F20201AF
:100E4000884200F0A68046F22841C4F2020188429E
:100E500001BF46F20800C4F202004FF47461C0F80A
:100E6000001408BF7047D0E046F29F01C4F20201AF
:100E700088425BDC46F27001C4F20201884200F055
:100E8000908046F28801C4F20201884240F0BD80A1
:100E900046F20800C4F2020040F6407186E046F2D5
:100EA0009F41C4F20201884256DC46F27041C4F20E
:100EB000020188427ED046F28841C4F20201884293
:100EC00018BF704746F20C40C4F2020040F6407171
:100ED00075E046F24001C4F20201884273D046F246
:100EE0005801C4F20201884201BF46F20800C4F270
:100EF00002004FF07461016008BF704785E046F260
:100F00004041C4F20201884265D046F25841C4F221
:100F10000201884201BF46F20800C4F202004FF00D
:100F20007461C0F8001408BF70476EE046F2A0017B
:100F3000C4F20201884257D046F2B801C4F202015D
:100F4000884201BF46F20800C4F202004FF03D5152
:100F5000416008BF704758E046F2A041C4F2020168
:100F600088424AD046F2B841C4F20201884201BF29
:100F700046F20C40C4F202004FF03D51016008BF40
:100F8000704742E046F20800C4F202003D210160D1
:100F9000704746F20800C4F202003D21C0F8001478
:100FA000704746F20800C4F202003D21C2F200017F
:100FB0004160704746F20C40C4F202003D21C2F28B
:100FC00000010160704746F20800C4F202004FF4CD
:100FD00074110160704746F20800C4F202004FF439
:100FE0007411C0F80014704746F208000021C4F2E2
:100FF0000200C2F23D014160704746F20C40002100
:10100000C4F20200C2F23D0101607047006800F0C6
:1010100001007047406880B2704700000B0608D599
:10102000D0F814C0002A4CF0800308BF2CF08003D5
:101030004361802908BF704701F01E011AB10268A0
:10104000114301607047026822EA010101607047A4
:101050002DE9F04F026848F23F03CFF21C03D1F8AC
:1010600000901A40D1E9038E01F1140C9CE8F010B5
:1010700042EA090242EA080222432A4332438B6AC7
:101080003A43D1E90DAB42EA0C021A4342EA0A02A2
:1010900042EA0B0202604269D1E90B3722F00702F3
:1010A0001A433A434261C0F804E04A6882608968A2
:1010B000C160BDE8F08F0000B0B582B01020012102
:1010C00000F000F94FF40040009040F2012041F29E
:1010D0000004ADF804000020C4F202046D468DF84F
:1010E00006002046294600F01FF84FF4804000908B
:1010F0002046294600F018F84FF400500090204692
:10110000294600F011F84FF48050009020462946FF
:1011100000F00AF84FF4006000902046294600F0E5
:1011200003F802B0B0BD00002DE9F041D1F8008015
:1011300000234FF0030C4FF0010E00240FE000BF1E
:10114000C268AA43C260CA79C5689A402A43C2608D
:101150000134102C03F1020308BFBDE8F08128FA26
:1011600004F5ED07F4D006680CFA03F5AE4306600B
:101170000E79076806FA03F2013E3A43012E026037
:10118000DED88268EE43324082604A798E79876881
:101190009A403A43826042680EFA04F7BA434260CA
:1011A00006FA04F2466892B232434260C8E7000091
:1011B0001C2303EA810C6FF0030303EA5101084486
:1011C0000F23016A03FA0CF399430162016A02FAE0
:1011D0000CF2114301627047FEE7000010B5C178C0
:1011E00000294EF20011CEF200011CD04EF60C5236
:1011F000CEF200021268072323EA12220F23C2F163
:10120000040C23FA02FE427884785FFA8CF390F89B
:1012100000C09A4004EA0E031A43120101EB0C03CA
:1012200083F8002300E080310078012300F01F02E2
:1012300003FA02F2C0F3421041F8202010BD000072
:1012400040F080604EF60C5140F0FD70CEF200018F
:10125000086070470000000000000000000000006F
:10126000EFF30980BFF36F8F154B1A681EF0100F54
:1012700008BF20ED108A20E9F04F10602DE9090029
:101280004FF0500080F31188BFF34F8FBFF36F8F83
:1012900004F072FE4FF0000080F31188BDE80900F1
:1012A00019680868B0E8F04F1EF0100F08BFB0ECE6
:1012B000108A80F30988BFF36F8F704700BF00BFAB
:1012C000F0170020002943F63001C4F202010A6839
:1012D0000CBF22EA0000104308607047002943F663
:1012E0004001C4F202010A680CBF22EA0000104368
:1012F00008607047002943F62001C4F202010A6821
:101300000CBF22EA0000104308607047002943F632
:101310004401C4F202010A680CBF22EA0000104333
:1013200008607047002943F62401C4F202010A68EC
:101330000CBF22EA000010430860704710B543F666
:101340000404C4F20204626802F00C0342F2004298
:10135000082BC0F2F40206D0042B20D141F2002267
:10136000C0F27A021BE0D4F800C0236803F03F0EFD
:101370005FEA4C2341F20023C0F27A0358BF1346C0
:101380002268B3FBFEFCC2F38812236802FB0CFC4C
:10139000C3F30143022202EB4302BCFBF2F2026000
:1013A000626849F2B823C2F30312C0F600039A5CE4
:1013B0000168D14041606268C2F382229A5C21FADE
:1013C00002F282606268C2F342329A5CD140C1602C
:1013D00010BD000000000000000000000000000040
:1013E000074B19680868B0E8F04F80F30988BFF32D
:1013F0006F8F4FF0000080F31188704700BF00BF6F
:10140000F017002082B043F608000021C4F2020069
:101410000191009150F8081C41F4803140F8081CFB
:1014200050F8081C01F4003100910199013101913B
:10143000009919B90199B1F5A04FF1D150F8081CE4
:10144000890354BF0021012100910099012936D15F
:10145000816B41F08051816347F20001C4F20001C9
:101460000A6842F440420A6001680160016841F480
:1014700000410160016841F4A051016045F208415A
:10148000C0F2407140F8041C50F8081C41F0807113
:1014900040F8081C50F8081C8901FBD540F2057182
:1014A000C0F8F813016821F003010160016841F000
:1014B00002010160016801F00C010829FAD102B0B3
:1014C000704700004EF21001CEF200010A680428B5
:1014D00022F0040308BF42F004030B6070470000D1
:1014E00080B50420FFF7EEFF4EF21000CEF20000B0
:1014F000016841F00201016049F24001C0F20201BD
:101500004160016841F00101016080BD80B500F0DB
:10151000F9FD80BD10B54EF68854CEF20004206867
:101520004FF6FF7340F47000206043F60000C4F2F1
:1015300002000168CFF6F66341F00101016000216D
:10154000816002681A40026043F21002C2F2004257
:101550004260026822F480220260C160FFF752FFFD
:101560004FF0006044F8800C10BD000010B584B04E
:1015700008200121FFF7B2FE532001904FF0FF3009
:1015800040F6004402900020C4F20004ADF80C00C4
:1015900001A9204600F010F82046012100F002F8D1
:1015A00004B010BD0288002942F0010308BF22F0F8
:1015B000010303807047000010B540F6FF32B0F819
:1015C00000E0C4F2000240F2004C9042C4F2010C70
:1015D0000FDCB0F1804F19D040F20042C4F200029B
:1015E000904213D040F60002C4F2000290420DD0A7
:1015F00011E040F60042C4F20002904206D060457D
:1016000004D00022C4F20102904204D14A882EF094
:10161000700342EA030E41F2004340F48062C4F2D8
:1016200000039A4204D00C892EF4407344EA030E5E
:10163000A0F800E04B686245C3620B88038504BFD5
:10164000897A01860121818210BD00002DE9F04FC9
:1016500097B00420C0F220000121FFF733FE4FF4C1
:1016600000200121FFF73AFE44F60044C4F20004D2
:1016700004F5DE3528460A210822FFF799FD2846A1
:101680000B210822FFF794FD4FF44060119040F2C7
:101690000220C0F20010129011A92846FFF744FD65
:1016A00040F23450C0F20510109010A8FFF796FDDC
:1016B0004FF4E12013904FF440200027159013A918
:1016C00020461497ADF8587000F074FC2046402175
:1016D000012200F0A7FB20468021012200F0A2FB9E
:1016E0002046012100F094FB46F27005C4F2020589
:1016F000A5F130063046FFF75DFB41F266104FF072
:1017000000690434C2F20000CDF804900294CDE9DF
:1017100003074FF4FA70CDE905074FF4806B4FF4DF
:101720008070CDE907B70A904FF4403803200DF1DF
:10173000040A0997CDE90B87CDE90D0730465146DC
:101740000F97FFF785FC30460121FFF729FB28465C
:10175000FFF730FB4020CDE901940397CDE9040762
:1017600028465146CDE9067BCDE90877CDE90A78D0
:10177000CDE90C77CDE90E77FFF76AFC28461021FA
:101780000122FFF74BFC28460021FFF709FB17B0A9
:10179000BDE8F08F80B544F60040C4F2000000F0D0
:1017A00085FD80BD2DE9F04F97B00C20C0F22000E0
:1017B0000121FFF787FD4FF480100121FFF78EFD17
:1017C00045F20004C4F2000404F5DC3528460C217F
:1017D0000822FFF7EDFC04F5DE3630460221082230
:1017E000FFF7E6FC4FF48050119040F20220C0F267
:1017F000001011AF129028463946FFF795FC0420DF
:10180000119030463946FFF78FFC40F23550C0F258
:101810000510109010A8FFF7E1FC4FF4E1201390A1
:101820004FF440200027159013A920461497ADF8D7
:10183000587000F0BFFB20464021012200F0F2FA70
:1018400020468021012200F0EDFA2046012100F01F
:10185000DFFA46F2B805C4F20205A5F1A806304643
:10186000FFF7A8FA41F25A304FF000690434C2F28F
:101870000000CDF804900294CDE903074FF4FA700C
:10188000CDE905074FF4806B4FF48070CDE907B7C1
:101890000A904FF4403803200DF1040A0997CDE96E
:1018A0000B87CDE90D07304651460F97FFF7D0FB68
:1018B00030460121FFF774FA2846FFF77BFA4020F3
:1018C000CDE901940397CDE9040728465146CDE9B7
:1018D000067BCDE90877CDE90A78CDE90C77CDE92B
:1018E0000E77FFF7B5FB284610210122FFF796FB84
:1018F00028460021FFF754FA17B0BDE8F08F00002A
:1019000080B545F20000C4F2000000F0CFFC80BDBD
:10191000F0B597B00120C0F240000121FFF7D2FCE2
:1019200010200121FFF7F2FC41F20004C4F201048F
:1019300004F5704528460A210722FFF739FC40F2DA
:1019400002304FF48066129011A928461196FFF7D5
:10195000EBFB204600F06EFA48F2A060C0F20100F6
:10196000139040F20040C0F204000027159013A924
:1019700020461497ADF8587000F01CFB204601215A
:1019800000F046FA20464021012200F04BFA40F2D6
:101990002550C0F20510109010A8FFF71FFC46F26A
:1019A0004045C4F202052846FFF704FA4FF00060F4
:1019B0000190201D029040F64C50C2F20000CDE98B
:1019C00003073220CDE905074FF48070CDE90767A2
:1019D0000A904FF440300997CDE90B0701A928463A
:1019E000CDE90D770F97FFF733FB28460121FFF76D
:1019F000D7F917B0F0BD000080B541F20000C4F285
:101A0000010000F053FC80BD2DE9F04F97B0082095
:101A1000C0F220000121FFF755FC4FF400300121F6
:101A2000FFF75CFC44F20044C4F2000404F5E43522
:101A3000284605210722FFF7BBFB2846062107227F
:101A4000FFF7B6FB6020119040F20230129011A90E
:101A50002846FFF769FB40F22650C0F205101090AF
:101A600010A8FFF7BBFB4FF4E13013904FF4402078
:101A70000027159013A920461497ADF8587000F070
:101A800099FA20464021012200F0CCF9204680211D
:101A9000012200F0C7F92046012100F0B9F946F211
:101AA000A005C4F20205A5F118063046FFF782F939
:101AB0004FF00060019040F67E500434C2F2000006
:101AC0000294CDE903074FF4FA70CDE905074FF40E
:101AD000806B4FF480700DF1040ACDE907B70A90CE
:101AE0004FF440384FF00309304651460997CDE98D
:101AF0000B87CDE90D970F97FFF7AAFA3046012122
:101B0000FFF74EF92846FFF755F94FF0006001A99D
:101B100091C14020CDE9040728465146CDE9067B16
:101B2000CDE90877CDE90A78CDE90C79CDE90E77D2
:101B3000FFF78EFA284610210122FFF76FFA284698
:101B40000021FFF72DF917B0BDE8F08F80B544F202
:101B50000040C4F2000000F0A9FB80BD2DE9F04F69
:101B600097B00820C0F220000121FFF7ABFB4FF433
:101B700080200121FFF7B2FB44F60004C4F2000408
:101B800004F5E235284608210722FFF711FB284615
:101B900009210722FFF70CFB4FF44070119040F22F
:101BA0000220C0F20010129011A92846FFF7BCFADB
:101BB00040F22750C0F20510109010A8FFF70EFB5E
:101BC0004FF4612013904FF440200027159013A983
:101BD00020461497ADF8587000F0ECF920464021EB
:101BE000012200F01FF920468021012200F01AF99D
:101BF0002046012100F00CF946F25805C4F2020516
:101C0000A5F130063046FFF7D5F84FF0006001909F
:101C100040F672700434C2F200000294CDE903076A
:101C20004FF4FA70CDE905074FF4806B4FF48070E4
:101C30000DF1040ACDE907B70A904FF440384FF090
:101C40000309304651460997CDE90B87CDE90D9739
:101C50000F97FFF7FDF930460121FFF7A1F828465D
:101C6000FFF7A8F84FF0006001A991C14020CDE92D
:101C7000040728465146CDE9067BCDE90877CDE932
:101C80000A78CDE90C79CDE90E77FFF7E1F928461E
:101C900010210122FFF7C2F928460021FFF780F842
:101CA00017B0BDE8F08F000080B544F60000C4F224
:101CB000000000F0FBFA80BD2DE9F04F97B0042042
:101CC000C0F240000121FFF7FDFA20200121FFF7BB
:101CD0001DFB41F20044C4F2010404F5744528469A
:101CE00007210822FFF764FA284606210822FFF799
:101CF0005FFAC020119040F20220C0F20010129052
:101D000011A92846FFF710FA40F24750C0F205101B
:101D1000109010A8FFF762FA4FF4612013904FF46F
:101D200040200027159013A920461497ADF858704D
:101D300000F040F920464021012200F073F82046CF
:101D40008021012200F06EF82046012100F060F8A9
:101D500046F2A045C4F20205A5F178063046FFF729
:101D600029F84FF02060019041F24E500434C2F245
:101D700000000294CDE903074FF4FA70CDE905079E
:101D80004FF4806B4FF480700DF1040ACDE907B772
:101D90000A904FF440384FF00309304651460997F6
:101DA000CDE90B87CDE90D970F97FFF751F9304635
:101DB0000121FEF7F5FF2846FEF7FCFF4FF02060FB
:101DC00001A991C14020CDE9040728465146CDE93B
:101DD000067BCDE90877CDE90A78CDE90C79CDE924
:101DE0000E77FFF735F9284610210122FFF716F983
:101DF00028460021FEF7D4FF17B0BDE8F08F0000A1
:101E000080B541F20040C4F2010000F04FFA80BDFD
:101E10008289002942F4005308BF22F400538381D1
:101E200070470000002A828A0CBF22EA0101114398
:101E30008182704780B547F2FF71C4F20001884289
:101E400019DC44F6FF31C4F2000188422DDC44F273
:101E50000041C4F2000188424ED044F60001C4F2B1
:101E6000000188425AD14FF480200121FFF742FA45
:101E70004FF480205AE040F6FF71C4F2010188421D
:101E800027DC47F60001C4F2000188423CD047F647
:101E90000041C4F20001884240D14FF000400121CE
:101EA000FFF728FA4FF0004040E044F60041C4F24A
:101EB0000001884233D045F20001C4F2000188429B
:101EC0002CD14FF480100121FFF714FA4FF4801049
:101ED0002CE041F20041C4F2010188422AD041F2D3
:101EE0000001C4F20101884218BF80BD1020012109
:101EF000FFF718FA102022E04FF400300121FFF71D
:101F0000F9F94FF4003011E04FF080400121FFF764
:101F1000F1F94FF080400021FFF7ECF980BD4FF45C
:101F200000200121FFF7E6F94FF400200021FFF720
:101F3000E1F980BD20200121FFF7F4F920200021E4
:101F4000FFF7F0F980BD000001F01F024FF0010C17
:101F5000C1F34213022B0CFA02F206D0012B14BF7C
:101F600000F1140300F10C0301E000F110031B88E1
:101F70000088090A1A4020FA01F018BF0122104017
:101F800070470000C1F3421301F01F0C1421022B13
:101F900008BF1021012B4FF0010308BF0C21002ABC
:101FA00003FA0CF243580CBF23EA02021A434250D0
:101FB0007047000070B584B00446008A0D46C98899
:101FC00020F4405008432082A0894EF6F3110840C7
:101FD000A9882A896B89084310431843A081A08AE5
:101FE000A98920F4407008436E46A0823046FFF76E
:101FF000A5F941F2004144F48060C4F20101884235
:1020000014BF06F1080006F10C0000681922B4F9AB
:102010000C1050432A680223002948BF012302FA0A
:1020200003F1B0FBF1F048F21F51C5F2EB11A0FB38
:1020300001235A096FF0630302FB0300B4F90C306B
:102040000426002B48BF032600FA06F000F13200F8
:10205000A0FB01014FF00F0048BF072000EA51101C
:1020600040EA0210208104B070BD000080B500F08D
:1020700085FD40F60040C2F2000002F0F9FA01F0DE
:102080003DF800F09FFB80BD70B5044646F2004667
:1020900041F2947041F2C075C4F20006C2F2000031
:1020A000C2F20005B44208BF054620460221FEF7F1
:1020B0009FFCD8B120460221FEF7DAFB2A1D2046FC
:1020C0000021FEF7A3FD284600F06AF9B4420ED0C5
:1020D00006F58060844218BF70BD40F64440C2F2ED
:1020E0000000D0F890100131C0F8901070BD40F69B
:1020F0004440C2F20000D0F888100131C0F88810C6
:1021000070BD000010B504F09DFA012818BF04F05E
:1021100041F840F64440C2F20000D0F898C047F6BB
:10212000D502C2F2E9620CFB02F248F637134FEA1D
:10213000F202C0F241039A426ED803688168D0F877
:1021400010E000228469C0E90023C0E90221C0E94F
:10215000042E016A40F680334162816AC2F20003B4
:10216000C162016B82614163816BC461C163816D36
:102170000262C165016E82624166816E0263C16660
:10218000016F82634167816F8265C167D0F88010FB
:102190000266C0F88410D0F888108266C0F88C10EF
:1021A000D0F890100267C0F89410196882675960DF
:1021B0009968C0F88020D9601969C0F888205961F1
:1021C0009969C0F89020D961196A1A605962996AB0
:1021D0009A60D962196B1A615963996B9A61D963D4
:1021E000196C1A625964996C9A62D964196D1A63F0
:1021F0005965996D9A63D965196E1A645966996E15
:102200009A64D966196F1A655967996F9A651A6643
:102210009A661A67C3E91E210CF10101C0F89810F3
:1022200010BD000044F6FF71C4F20001884240F680
:102230004441C2F2000114DC44F20042C4F2000244
:10224000904224D044F60002C4F20002904221D011
:1022500044F60042C4F20002904226D101F170001F
:1022600020E045F20002C4F20002904215D041F293
:102270000002C4F20102904212D041F20042C4F2C4
:102280000102904218BF704701F180000AE001F19D
:10229000600007E001F1680004E001F1780001E06E
:1022A00001F15800016801310160704770B582B0DA
:1022B00040F68806C2F20006D6F874410546216849
:1022C00081420ED040F6E040C2F20000806D40F244
:1022D00078020168C2F20002D2F80848A94208BF99
:1022E00004462846FFF79EFF206840F22441FFF78E
:1022F0002BFE58B3206840F2700201888088D6F81F
:102300007411C2F200020E681080204602F0B2FB87
:10231000AE421DD0218A884218D141F24470C2F2E7
:102320000000006890B194F8281001AA03F0A8FEFC
:1023300060B1019850B14EF60450CEF200004FF05B
:1023400080510160BFF34F8FBFF36F8F02B070BD3C
:1023500041F24470C2F2000000680028F6D094F800
:10236000281001AA03F08CFE0028EFD00198002865
:10237000ECD04EF60450CEF200004FF080510160D8
:10238000BFF34F8FBFF36F8F02B070BD80B502F007
:1023900077FE02F07DFE02F083FE02F089FE80BD32
:1023A00070B5016846F60002C4F2000291422BD0DB
:1023B00046F20042C4F20002914240F0A58041681A
:1023C000A1F20121032900F29F80DFE801F0029EC3
:1023D000B9D440F60046C2F2000600F10F05746958
:1023E000284601F0FFFB0146204602F065FA7469B9
:1023F000284601F0EBFB00EE100AB8EEC00A2046BA
:1024000002F07EFA7069D0E0416840F20122914208
:1024100042D040F20322914259D0B1F5806F18BFEB
:1024200070BDB0F80F109FED631A090409BA00EEF1
:10243000101AB8EEC00A80EE010A40F60041C2F25E
:102440000001C96981ED010AB0F81120120412BA25
:1024500000EE102AB8EEC00A80EE010A81ED020AF1
:10246000B0F81320120412BA00EE102AB8EEC00A17
:1024700080EE010A81ED030AB0F81500000400BAED
:1024800000EE100AB8EEC00A80EE010A086B0130B7
:10249000086381ED040A70BD40F60046C2F20006F2
:1024A00000F10F057468284601F09CFB01462046A8
:1024B00002F002FA7468284601F088FB00EE100A68
:1024C000B8EEC00A204602F01BFA70686DE040F6D4
:1024D0000046C2F2000600F10F05B468284601F07C
:1024E00081FB0146204602F0E7F9B468284601F076
:1024F0006DFB00EE100AB8EEC00A204602F000FAAA
:10250000B068016D0131016570BD40F60046C2F250
:10251000000600F10F05B469284601F063FB01468F
:10252000204602F0C9F9B469284601F04FFB00EEDD
:10253000100AB8EEC00A204602F0E2F9B06934E0B1
:1025400040F60046C2F2000600F10F05F468284686
:1025500001F048FB0146204602F0AEF9F468284637
:1025600001F034FB00EE100AB8EEC00A204602F07B
:10257000C7F9F06819E040F60046C2F2000600F123
:102580000F053469284601F02DFB0146204602F074
:1025900093F93469284601F019FB00EE100AB8EEF1
:1025A000C00A204602F0ACF93069016D01310165C5
:1025B00070BD00BF0000C8422DE9F04141F24C77E8
:1025C00000F00401C2F2000741F2507840F64444A2
:1025D00040F27805396000F00801C2F20008800777
:1025E000C2F20004C2F20005C8F8001038D540F667
:1025F0008806C2F20006D6F874118868898A00F04D
:10260000B1FCD6F87461D5F8D007B18A0144033122
:1026100009097C291ED8411CC5F8D017AB212954C3
:10262000D5F8D007411CC5F8D017A1212954D5F8F9
:10263000D007317D421CC5F8D0272954D5F8D007E2
:10264000B168B28A2844FDF715FEB08AD5F8D017D4
:10265000084400E00020A16AC5F8D007481CA06229
:10266000386810B1206B01302063D8F800000028D2
:1026700008BFBDE8F081D5F80808806800F062FE68
:10268000A06B0130A063BDE8F081000080B541F28D
:10269000547340F64442C2F20003C2F200021868CA
:1026A000D2F88C10D2F8942041F2873C0130614579
:1026B000186009D842B14AF6AB21CAF6AA214843AC
:1026C000B0F1553F0AD980BD624503D8C00718BF95
:1026D00080BD03E041F28730814206D840F6840095
:1026E000C2F2000001F0E6FF80BD40F68400C2F2B5
:1026F0000000002101F0F2FF80BD000040F6004C18
:10270000C2F2000CDCE9052340F6E040D2E90012F9
:10271000C2F20000C0E900121968DCF810208160E4
:102720005968C160116801615168DCF80C20416191
:1027300011688161516840F64442C2F2000292ED94
:10274000230AC161B8EE400A92ED251A80ED100A05
:10275000B8EE410A92ED191A80ED110AB8EE410A5D
:1027600092ED1D1A80ED120AB8EE410A80ED130AAF
:102770007047000040F6244541F2587640F6444741
:1027800040F6E044C4F20005C2F20006C2F20007BF
:10279000C2F2000428683060FFF7B0FF97ED260A08
:1027A0002046B8EE400A84ED140A02F01DF8B8681D
:1027B0000130B86028683168401A7864012003F05D
:1027C000E1FAE7E7B0B582B003F042FA012049F23E
:1027D000C85440F6485C009042F61970C0F60004F8
:1027E000C2F2000CC0F60000214664220023CDF89E
:1027F00004C003F0F7FE40F63C50C2F20000019026
:1028000043F299000425C0F600002146C8220023A7
:10281000009503F0E7FE40F6405C43F26D20C2F203
:10282000000CC0F600002146C82200230095CDF818
:1028300004C003F0D7FE022040F27405009042F27B
:102840007570C2F20005C0F600002146C8220023C0
:10285000019503F0C7FE032040F64455009042F670
:10286000C120C2F20005C0F600002146C8220023A4
:10287000019503F0B7FE052041F24875009042F63D
:102880007520C2F20005C0F600002146C8220023D0
:10289000019503F0A7FE03F0A5FB41F24471C2F2DB
:1028A0000001086003F0E4F903F022FB02B0B0BDC0
:1028B00010B540F6004040F27804C2F20000C2F2C7
:1028C0000004416A026BD4F8D007C4F8D71700F1AE
:1028D0000C0109097C29C4F8DB270FD8D4F8D527C7
:1028E000D4F8D9C7D4F8DD37211822508B60C1F84D
:1028F00004C0D4F8D0070C30C4F8D007D4F8D007FF
:10290000D4F808184884204602F02CF90020C4F8B6
:10291000D00710BDF0B581B040F68804C2F20004C3
:1029200094F8E9020130C1B20A2984F8E902C0F042
:10293000848040F27800C2F20000D0F8F717D0F897
:10294000FB0700EE101AB2EE041A02EE100A20EE97
:10295000010A22EE011A032084F80A01BDEEC00A22
:10296000BDEEC11A94F8EA0210EE105A11EE106A88
:1029700070B90020A4F8E20204F20F106221A4F85A
:10298000E452A4F8E662FDF7C2FC0120A4F8EA02D2
:1029900094F8E40294F8E61294F8EB222F1A312A04
:1029A000A6EB010120D394F80FE194F840C194F80C
:1029B000E23294F8E322A3EB0E03A2EB0C0284F8BC
:1029C000E23284F8E32204F5877230239078013BE9
:1029D00002F8010F92F8320082F83100F6D194F833
:1029E000EB22013A84F8EB2294F8EB0204F58572AD
:1029F0001044477194F8EB02104480F8361094F8B4
:102A0000E20294F8E322384484F8E20240B211442E
:102A1000281A94F8EB32A4F80B0148B2301A5A1C69
:102A2000A4F80D01002084F8E31284F8EB22A4F846
:102A3000E452A4F8E66284F8E90294F8E80201306E
:102A4000C1B2642984F8E80211D304F27F1004F5BE
:102A500085716722FDF70EFC04F5BC70702100F053
:102A6000A1FC204602F0A4F9002084F8E80201B09D
:102A7000F0BD000082B040F6244441F2447841F2B7
:102A80005C7740F64445C4F20004C2F200084FF0FF
:102A9000FF36C2F20007C2F2000500BFD8F80000FE
:102AA000FF2101220023009603F0F6FA2168396025
:102AB000FFF782FD20683968401A6865EEE700007C
:102AC00040F6244441F2607540F64446C4F20004E6
:102AD000C2F20005C2F200062068286000F012F879
:102AE00000F082F800F004FB00F0DCFB30690130FC
:102AF000306120682968401AB064012003F042F96F
:102B0000EAE7000010B540F64440C2F20000406F12
:102B1000B0F5617F1AD940F27804C2F2000494F84B
:102B200003180846002918BF0120012918BF4100D9
:102B300040F60040C2F2000001F072F994F8040877
:102B400001280CD002280CD103240EE040F60040EE
:102B5000C2F200000021002401F062F905E0022425
:102B600003E04FF0000488BF012440F60040C2F2A9
:102B70000000214601F04AFC10BD0000B0B582B053
:102B800044F2004440F68800C4F20004C2F200009F
:102B9000214602F0F7F840F6E04004F58061C2F209
:102BA000000001F00FFE40F2780004F50061C2F26F
:102BB000000001F0C3FF41F2947004F500510825B4
:102BC000C2F2000000220023009501F04DF841F20E
:102BD000C07004F51051C2F20000002200230095DD
:102BE00001F042F802B0B0BD2DE9F04F81B02DEDFB
:102BF000068B40F60046C2F200063069B7EE008A46
:102C00000121B0EE480A01F007FEF0680121B0EEA4
:102C1000480A01F001FE70690121B0EE480A01F096
:102C2000FBFDB0690121B0EE480A01F0F5FDD6E9DF
:102C3000014740F644482069C2F20008A0603869A4
:102C400094ED060A97ED061AB860D8F8740030EED5
:102C5000010AB6EE001AE169B0F5617FF86920EE6D
:102C6000010A616086ED080A786033D940F2780A7B
:102C7000C2F2000ADAF8F3379FED9F1ADAF8E71785
:102C8000DAF8EB27DAF8EF0730EE010A01EE103A36
:102C900030EE410AC6E90E12306486ED0D0A06F0E8
:102CA0006FF99FED930B96F829B059EC105B2A460B
:102CB0004B4606F0ACF9002808BFBBF1010F16D057
:102CC000306C06F05DF92A464B4606F099F988B952
:102CD00000200DE0002086F82800C6E90D00C6E9B6
:102CE0000F00616B7A6BC860D060B08524E0012072
:102CF00086F82800B07878B1BAF9E307BAF9E51791
:102D000000EE100AB8EEC00A606B80ED030A00EE18
:102D1000101AB8EEC00A04E0606B9FED780A00213B
:102D2000C160786B80ED030A96F82C009AF80518BC
:102D300086F82D0086F82C10D8F8640040F6880438
:102D40003328C2F200041CD3B4F84E00D4F8551056
:102D500000EE100AB8EE408AB4F85900B0EE481AF6
:102D600000EE100AF8EE400AF06900EE101A02F0C8
:102D700017F9F06902F0CAF8F069B0EE480A02F0FB
:102D80009BF894F89600433817281FD8DFE800F026
:102D90000C1E1E0E121E1E1E1E1E1E1E1E1E1E1E81
:102DA0001E1E1E151E191E1B012007E040F20110F9
:102DB00030850BE00020308508E0002086F82B00ED
:102DC00004E0002000E0012086F82A00B078012805
:102DD00008BF00F0B9F930699FED499A90ED070AF4
:102DE000F06880EE090A90ED071AB06981EE091AC1
:102DF00090ED072A706982EE092A90ED073A9FED5F
:102E000041AA83EE093A9FED404A9FED406A20EEC9
:102E10000A0A20EE045A20EE060A21EE0A1A21EED2
:102E2000061A31EE455A22EE0A2A22EE067A35EECD
:102E3000075A9FED377A23EE0A3A30EE010A22EE66
:102E4000041A23EE073A30EE410A35EE035A30EE0B
:102E5000030AB5EE001A25EE012A20EE010A22EE41
:102E6000021A20EE000A31EE008AB0EE480A05F0A0
:102E700077F8B4EE400AF1EE10FA33D606F10C03FF
:102E80000FCB91ED071A93ED072A90ED073A92EDDB
:102E9000074A81EE091A82EE092A83EE093A84EE86
:102EA000094A86ED0C0A21EE0A0A22EE0A1A71EE90
:102EB000400A23EE0A0A24EE0A1A30EE410A00F014
:102EC00015FD9FED141A20EE090A96ED082A30EE42
:102ED000010A32EE000A86ED090ABDEC068B01B04C
:102EE000BDE8F08FB0EE480A05F03AF8C6E700BF3B
:102EF0008DEDB5A0F7C6B03E00801D430000000078
:102F0000DE2E654277BE9F3DF904353FF204353F22
:102F1000F90435BF000034C240F6244541F264761E
:102F200040F6840440F64447C4F20005C2F20006AD
:102F3000C2F20004C2F2000728683060204601F0A7
:102F4000AFFB00F0CDF9FFF7A1FB38680130386026
:102F500028683168401A38644FF4FA7002F012FFA2
:102F6000EAE700002DE9F04FBFB06E460C4605467B
:102F70003046FA21FDF7EDF9002C00F079804FF092
:102F8000000A002004E000BF013C05F101056FD0FC
:102F90005FFA8AF10629F7D82A78DFE801F0122DC6
:102FA0001B0421394500471CC0B23254F9B23046E7
:102FB00000F0E2F9002818BF01204FEA800A3846E5
:102FC000E2E7A52A51D1A5208DF8000001204FF09D
:102FD000010AD9E7C1B2013072544FF0030AD3E7B6
:102FE000411CC0B2CBB23254072B04BF4FF0050ACC
:102FF000BDF805B00846C7E7411CC0B2CBB2325499
:10300000032B04BF4FF0020ABDF801800846BBE75E
:10301000C1B2013072540722C1B212FA88F28A4258
:1030200008BF4FF0060AAFE700F1010909235FFA74
:1030300089F113FA88F3C0B28B42325413D130466F
:1030400000F0C4F978B11FFA8BF01FFA88F231460C
:1030500000F0A4FC40F64441C2F20001086E4FF0BB
:10306000000A0130086648468EE74FF0000A8BE7F9
:103070003FB0BDE8F08F000061B149F2C84C0138A3
:10308000C0F6000C10F8013FD2B25A401CF80220E2
:103090000139F7D11046704740F6244441F2687573
:1030A00040F64446C4F20004C2F20005C2F2000633
:1030B00020682860FFF7FCFBB0690130B061206830
:1030C0002968401AF0640A2002F05CFEF0E7000074
:1030D00040F60040C2F2000090F82E10002908BF10
:1030E0007047D0E901100A690369CA60C36070477C
:1030F00080B500F0F1F8FFF7EBFF80BD10B544F2AA
:103100000044C4F20004204640F224410122FEF7AC
:1031100039FF04F5806040F224410122FEF732FFBE
:1031200004F5006040F224410122FEF72BFF04F574
:10313000005002210122FDF7DFFC04F510500221AE
:103140000122FDF7D9FC10BD2DE9F04140F6004009
:10315000C2F2000090F82C1041F27073002941F285
:10316000787E41F2747141F27C7C41F26D72C2F260
:103170000003C2F2000EC2F20001C2F2000CC2F261
:1031800000022FD190F82D4064B31C680D68CEF872
:1031900000404468CCF80050A46C856894ED040AA3
:1031A00041F26C76BDEEC00AAD6CC2F2000695ED40
:1031B000041A83ED000ABDEEC10A377881ED000ADA
:1031C000002F177807F1010717700BD127684FF010
:1031D000000867612F6884F8188001246F6185F802
:1031E000188034701278022A38BFBDE8F0811A685E
:1031F000DEF800309FED0F1AD21A00EE102AB8EE5A
:10320000C00A0968DCF80020B0EEC00A891A02EE94
:10321000101AB8EEC22AB0EEC22AD0E9011020EE90
:10322000010A22EE011A81ED0A0A80ED0A1ABDE8B0
:10323000F08100BF0000003980B598B181B149F23A
:10324000C82C0138C0F6000C10F801EFD3B283EAA5
:103250000E033CF8133092B2013983EA1222F3D103
:1032600090B280BD4FF6FF7290B280BD40F624440C
:1032700041F2807540F64446C4F20004C2F20005F3
:10328000C2F2000620682860FFF744FB306A013074
:10329000306220682968401A30650A2002F072FD09
:1032A000F0E7000010B540F60040C2F2000090F8D0
:1032B0002E0028B140F60040C2F2000001F0C8F92B
:1032C00040F60044C2F20004204601F0ADF9204669
:1032D00001F0A0F810BD000080B500F09DF880BDA1
:1032E00010B541F2847040F64444C2F20000C2F2CC
:1032F00000040168626E0131312A016005D840F690
:103300008400C2F2000001F0C1F9606F8008E0287B
:1033100088BF10BD40F68400C2F2000001F0D4F96D
:1033200010BD000060B1032938BF7047B0B54D1E15
:103330002946FF220446FFF79FFE6055BDE8B040D6
:103340007047000010B504460078552801D1607818
:1033500000B110BD2046272100F038F8002808BF32
:1033600010BD40F27800C2F2000000F2E170214688
:103370002722FCF77FFF10BDB0B5044600284FF0B0
:1033800000000DD0032938BFB0BD4D1E2046294690
:10339000FF22FFF771FE615D401AB0FA80F040092C
:1033A000B0BD000088B1032938BF7047B0B50446EE
:1033B00040F20000C2F2000002888D1E204629461D
:1033C000FFF73AFF6053BDE8B040704770B505465F
:1033D00000284FF0000008BF70BD0C46032917D32A
:1033E00040F20000C2F200000288A61E28463146C4
:1033F000FFF722FFA95DC2B291421CBF002070BD41
:10340000611911F8011CA1EB1020B0FA80F04009FD
:1034100070BD00000000000010B52DED108B40F6CF
:103420000044C2F20004207802280CD0B8B9002071
:1034300004EB8001C96801304A6804280A60F7D1AA
:10344000BDEC108B10BD94F82800B7EE001A9FED6C
:10345000740A002808BFB0EE401A84ED101A94EDEB
:10346000100AB5EE400AF1EE10FA40F03181A07872
:10347000012800F02D8194ED0DBA9FED6A9AB4EE0B
:1034800049BAF1EE10FA08DD9FED670A3BEE00BA8B
:10349000B4EE49BAF1EE10FAF8DC9FEDF0AAB4EE02
:1034A0004ABAF1EE10FA08DA9FEDED0A3BEE00BAE7
:1034B000B4EE4ABAF1EE10FAF8DB94ED0E0A94ED90
:1034C0000F1A20EE000A21EE011A30EE018AB0EE4A
:1034D000480A04F045FDB4EE400AF1EE10FA80F11E
:1034E000B78110EE100A05F04BFD9FEDDF0B53EC9A
:1034F000102B05F07EFD80B1D4ED0E0A94ED0F0A7D
:1035000000F0F4F99FEDDF1A41F2887020EE010A15
:10351000C2F2000080ED000A05E041F28870C2F2BC
:10352000000090ED000A9FEDD82A30EE4B3A33EEC2
:10353000021AB0EEC36AB0EEC15A9FEDD41AB4EECF
:10354000496AF1EE10FA33EE017A08DD9FEDCB4ABD
:1035500036EE046AB4EE496AF1EE10FAF8DCB4EE25
:10356000495A33EE094AF1EE10FAB0EEC77A08DD97
:10357000DFEDC20A35EE205AB4EE495AF1EE10FAE8
:10358000F8DCB4EE497AF1EE10FAB0EEC44A08DD88
:10359000DFEDBA0A37EE207AB4EE497AF1EE10FA8E
:1035A000F8DCB4EE494AF1EE10FA08DDDFEDB30ABB
:1035B00034EE204AB4EE494AF1EE10FAF8DCDFEDC1
:1035C000B40AF0EEC61A41F28C7CF4EE601A0022C6
:1035D000C2F2000CF1EE10FAA8BF01229CF80030F4
:1035E0009FEDA56A002B18BFB0EE463AF4EE601AC4
:1035F000F1EE10FAB8BFB0EE436AB0EEC53AB4EEE1
:10360000603A0020F1EE10FA42EA03020EDA0023DB
:10361000002A1EBF32EE4B2A30EE026A012306E07A
:1036200000000000000034430000B4C30023B0EEEB
:10363000C72AB4EE602A0021F1EE10FAA8BF0121DA
:1036400082F0010211438CF8003002BF31EE4B1AB8
:1036500030EE016A0120B0EEC41A39EE4B2A30EE8A
:10366000020A0028B4EE601A18BFB0EE460AF1EE66
:1036700010FAB8BFB0EE406AB4EE496AF1EE10FA43
:103680008CF8000009DD9FED7D0A00BF36EE006A70
:10369000B4EE496AF1EE10FAF8DCB4EE4A6AF1EEE3
:1036A00010FA08DA9FED760A36EE006AB4EE4A6A3E
:1036B000F1EE10FAF8DB16EE100A05F061FC9FED52
:1036C0006C0B53EC102B05F065F904F051FE2064EF
:1036D00094ED100AFFEE000AB7EE001A00F0F6F8BB
:1036E00094ED0D1A9FED6BCA9FED66BA3CEE411A40
:1036F00081EE0B1A94ED0F2A84ED100A32EE028A45
:10370000B0EE410A03F076FB94ED0D1A9FED62AA2C
:1037100094ED0E2A31EE0A1A81EE0B1A28EE008A79
:1037200032EE029AB0EE410A03F064FB29EE000A81
:1037300094ED102A38EE000A94ED0D1A9FED57DA39
:1037400032EE400A80EE0D2A31EE0A0A80EE0B0AB4
:1037500094ED0F1A31EE019A22EE0B8A03F04AFB28
:1037600094ED0D1A94ED0E2A3CEE411A81EE0B1ADF
:1037700029EE009A32EE02EAB0EE410A03F03AFB7B
:103780002EEE000A94ED102A94ED0D1A30EE490A3F
:1037900032EE000A80EE0D2A3CEE410A80EE0B0A62
:1037A00094ED0F1A31EE01EA22EE0B9A03F022FBA0
:1037B00094ED0D1A94ED0E2A31EE0A1A81EE0B1AD1
:1037C0002EEE00EA32EE02FAB0EE410A03F012FBEE
:1037D0002FEE000A94ED101A3EEE000A94ED0D2A29
:1037E00031EE000A80EE0D1A32EE0A0A80EE0B0A64
:1037F00094ED0F2A32EE02EA21EE0BAA03F0FAFA58
:1038000094ED0D1A94ED0E2A3CEE411A81EE0B1A3E
:103810002EEE00CA32EE02EAB0EE410A03F0EAFAF6
:103820002EEE000A94ED101A3CEE400A31EE000A2A
:1038300080EE0D0A2046F0EE480AB0EE4A1AF0EE8D
:10384000491A20EE0B0A00F0E1FEBDEC108B10BD12
:10385000B0EE480A04F084FB43E600BF000034C326
:103860000000B44300BF00BF7B14AE47E17A843F41
:103870009A9999999999A9BF000000000000B4C3D2
:103880000000B443DE2E65420000B4C20000B44222
:103890000000484200006143000007C377BE9F3D1F
:1038A0009FED091AB5EE400ABFEE002AF1EE10FABC
:1038B000B8BFB0EE421AB7EE000AC8BFB0EE401A69
:1038C000B0EE410A704700BF00000000B4EE410AAC
:1038D000F1EE10FAB4EE600AC8BFB0EE410AF1EEA4
:1038E00010FAB8BFB0EE600A7047000080B5F5EE80
:1038F000400AF1EE10FA4FF00001B5EE400A4FF029
:10390000000008BF0121F1EE10FA9FED201A08BF58
:103910000120084202D0B0EE410A80BDB5EE400A57
:10392000F1EE10FA07DDF5EE400AF1EE10FA02D1E1
:103930009FED170A80BDB5EE400AF1EE10FA07DAE6
:10394000F5EE400AF1EE10FA02D19FED120A80BDA9
:10395000B5EE400AF1EE10FA04D1F5EE400AF1EEB0
:1039600010FAD8DCB5EE400AF1EE10FA07D1F5EE08
:10397000400AF1EE10FA02DA9FED070A80BD03F06B
:10398000E3F8B0EE401AB0EE410A80BD000000003E
:10399000DD0FC93FDD0FC9BFDD0F494080B5B0F570
:1039A000007F1EDDA0F20123082B33D8DFE813F0DF
:1039B0000900650075008500FD009500A500B500B3
:1039C000C50040F68030C2F20000036B07310133BE
:1039D000036340F68800C2F200003630FCF74AFC70
:1039E00080BDB0F5807F2FDC012800F0B680032871
:1039F00040F0DB8040F68030C2F20000836807317F
:103A00000133836040F68800C2F200000C30FCF7FE
:103A100031FC80BD40F20133984200F0AD8040F2AD
:103A20000333984218BF80BD40F68030C2F20000D8
:103A3000836F07310133836740F68800C2F20000CC
:103A40008A30FCF717FC80BD40F20113984200F069
:103A5000AD80B0F5827F40F0A88040F68030C2F2A1
:103A60000000036A07310133036240F68800C2F2A6
:103A700000003430FCF7FEFB80BD40F68030C2F21F
:103A80000000836B07310133836340F68800C2F284
:103A900000005130FCF7EEFB80BD40F68030C2F2F2
:103AA0000000036C07310133036440F68800C2F262
:103AB00000006130FCF7DEFB80BD40F68030C2F2D2
:103AC0000000836C07310133836440F68800C2F242
:103AD00000007130FCF7CEFB80BD40F68030C2F2B2
:103AE0000000036D07310133036540F68800C2F220
:103AF00000007230FCF7BEFB80BD40F68030C2F2A1
:103B00000000836D07310133836540F68800C2F2FF
:103B100000007330FCF7AEFB80BD40F68030C2F28F
:103B20000000036E07310133036640F68800C2F2DD
:103B300000007A30FCF79EFB80BD40F68030C2F278
:103B40000000836E07310133836640F68800C2F2BD
:103B500000008030FCF78EFB80BD40F68030C2F262
:103B60000000036807310133036040F68800C2F2A9
:103B70000000FCF77FFB80BD40F68030C2F2000001
:103B8000036F063A01330367D1F8070040F6880354
:103B9000C2F20003C3F88400B1F80B000D31A3F8A2
:103BA000880003F19900FCF765FB80BD40F680308A
:103BB000C2F20000836907310133836140F6880057
:103BC000C2F200002C30FCF755FB80BD8178C07834
:103BD00040EA01221046CFF6FF70090658BF104692
:103BE000704700000088000400BA704780B5027E6C
:103BF00001600AB1021D05E0002202610122027685
:103C000000F114021268D0F80CC08B1A0CEBDC7EA9
:103C10000022A2EB6E029342836002DA0CEB0302F5
:103C200004E0B3EB6E0F02DDA3EB0C02826090EDBB
:103C3000020A90ED041AB8EEC00A31EE000A80EDD7
:103C4000040A416080BD00000023C0E90033C0E9E0
:103C5000032341610376704780B5014651F8180B84
:103C6000FDF72EF880BD0000DDF800C0016080F88F
:103C7000202080F8213080F822C07047000000002A
:103C80002DE9F04381B02DED028BC769804638786D
:103C900018B9796D0022C1E908227978012908BF95
:103CA00000280AD108F10C010022002351F82360FA
:103CB0000133766B042B7262F8D1012861D197ED44
:103CC000108B9FED3D0B55EC186B53EC102B3046D1
:103CD000294605F09CF900284DD19FED390B30465F
:103CE00053EC102B294605F084F918B997F85000C9
:103CF000002846D0B0EE480A7D6DF0EE680A03F069
:103D000023F99FED311B51EC100B53EC112B04F0F8
:103D10001DFC04F02DFB00EE100A284600F0EAFC22
:103D2000D8F81C00406DC06805F02AF941EC110B71
:103D30009FED270B03F0ECFAD8F81C00012108F1E5
:103D40000C09002456EC105B80ED120B80F850102B
:103D500059F82400476BF86805F012F902460B4643
:103D60002846314604F016FE04F002FB0134042C10
:103D7000F860EDD105E0796D002087F85000C1E9C9
:103D80000800D8F81C00017802290ED1436D0022EA
:103D9000C3E9082208F10C03002700BF53F827608D
:103DA0000137766B042FF260F8D14170BDEC028BC5
:103DB00001B0BDE8F08300BF000000000000E03F5C
:103DC000CDCCCCCCCCCCEC3F90CA77020700F0BF76
:103DD00002BC051214BF054010B50446582001F07E
:103DE0003BF901F01DF9E0613C2001F035F99FED50
:103DF0000B1ADFED090AF2EE041AB7EE000AB0EE74
:103E0000612AF0EE612AB0EE613AF0EE413A00F03C
:103E1000C9FCE169486510BD0AD7A33C0000000059
:103E20000278017042707047B0B52DED108B0446DA
:103E3000542001F011F946F20045DFEDFDBAC4F25D
:103E4000000529460322B0EE6B0A00F071FDE06028
:103E5000202001F001F99FEDF7EA9FEDF78A9FED31
:103E6000F79AB0EE4E0AF0EE480AB0EE481AF0EEBD
:103E7000491A00F07BFFE16808633C2001F0ECF890
:103E80009FEDEFAA9FEDEFBAB2EE04CAB0EE490A79
:103E9000F0EE490AB0EE491AF0EE4C1AB0EE4B2A99
:103EA000F0EE4B2AB0EE4A3AF0EE4B3A00F07AFCD4
:103EB000E16888633C2001F0CFF89FEDE3FAB0EEB3
:103EC0004C0AF0EE490AB0EE491AF0EE4C1AB0EE88
:103ED0004F2AF0EE4F2AB0EE4A3AF0EE4B3A00F09D
:103EE00061FCE16848631C2001F0B6F840F27A31C9
:103EF0004FF40052FFF7A8FEE1688864382001F013
:103F0000ABF89FEDD2DADFEDD28ADFEDD29A012154
:103F1000B0EE480AF0EE4D0AB0EE681AF0EE691AFB
:103F200000F096FEE168C863382001F095F89FED37
:103F3000CA1ADFEDCA1A0121B0EE480AF0EE4D0AA6
:103F400000F086FEE1680864542001F085F82946F7
:103F50000422B0EE6B0A00F0EBFC2061202001F09F
:103F60007BF8B0EE4E0AF0EE480AB0EE481AF0EEDA
:103F7000491A00F0FBFE216908633C2001F06CF84F
:103F8000B0EE490AF0EE490AB0EE491AF0EE4C1ACA
:103F9000B0EE4B2AF0EE4B2AB0EE4A3AF0EE4B3A36
:103FA00000F000FC216988633C2001F055F8B0EE78
:103FB0004C0AF0EE490AB0EE491AF0EE4C1AB0EE97
:103FC0004F2AF0EE4F2AB0EE4A3AF0EE4B3A00F0AC
:103FD000E9FB216948631C2001F03EF840F21531ED
:103FE0004FF40052FFF730FE21698864382001F059
:103FF00033F80121B0EE480AF0EE4D0AB0EE681A2F
:10400000F0EE691A00F024FE2169C863382001F03F
:1040100023F8F6EE00AA0121B0EE480AF0EE4D0AB0
:10402000B0EE481AF0EE6A1A00F012FE2169086438
:10403000542001F011F829460122B0EE6B0A00F07D
:1040400077FC6061202001F007F8B0EE4E0AF0EE38
:10405000480AB0EE481AF0EE491A00F087FE61698E
:1040600008633C2000F0F8FFB0EE490AF0EE490A80
:10407000B0EE491AF0EE4C1AB0EE4B2AF0EE4B2A95
:10408000B0EE4A3AF0EE4B3A00F08CFB616988637F
:104090003C2000F0E1FFB0EE4C0AF0EE490AB0EE31
:1040A000491AF0EE4C1AB0EE4F2AF0EE4F2AB0EE5D
:1040B0004A3AF0EE4B3A00F075FB616948631C2008
:1040C00000F0CAFF40F285314FF40052FFF7BCFD0B
:1040D00061698864382000F0BFFF0121B0EE480A12
:1040E000F0EE4D0AB0EE681AF0EE691A00F0B0FD7D
:1040F0006169C863382000F0AFFFDFEDC2CA01215B
:10410000B0EE480AF0EE4D0AB0EE6C1AF0EE6A1A04
:1041100000F09EFD61690864542000F09DFF29466F
:104120000222B0EE6B0A00F003FCA061202000F038
:1041300093FFB0EE4E0AF0EE480AB0EE481AF0EEE9
:10414000491A00F013FEA16908633C2000F084FFC7
:10415000B0EE490AF0EE490AB0EE491AF0EE4C1AF8
:10416000B0EE4B2AF0EE4B2AB0EE4A3AF0EE4B3A64
:1041700000F018FBA16988633C2000F06DFFB0EEF1
:104180004C0AF0EE490AB0EE491AF0EE4C1AB0EEC5
:104190004F2AF0EE4F2AB0EE4A3AF0EE4B3A00F0DA
:1041A00001FBA16948631C2000F056FF40F2D24198
:1041B0004FF40052FFF748FDA1698864382000F0F1
:1041C0004BFF0121B0EE480AF0EE4D0AB0EE681A3E
:1041D000F0EE691A00F03CFDA169C863382000F0D8
:1041E0003BFF0121B0EE480AF0EE4D0AB0EE6C1A2A
:1041F000F0EE6A1A00F02CFDA1690864542000F06A
:104200002BFFDFED81BA05F5806529460122B0EE6E
:104210006B0A00F08DFB6060202000F01DFFB0EE07
:104220004E0AF0EE480AB0EE481A00F019B800BF86
:10423000E0B4E74200C0DA456F12833A00000000A4
:1042400000409C450000FA4400401C4617B7D13896
:10425000CDCC4C3F0AD7233CCDCC4C3D0AD7A33B19
:10426000F0EE491A00F082FD6168C8623C2000F05F
:10427000F3FEB0EE490AF0EE490AB0EE491AF0EE4C
:104280004C1AB0EE4B2AF0EE4B2AB0EE4A3AF0EE62
:104290004B3A00F087FA616888633C2000F0DCFE4E
:1042A000B0EE490AF0EE490AB0EE491AF0EE4C1AA7
:1042B000B0EE4F2AF0EE4F2AB0EE4A3AF0EE4B3A0B
:1042C00000F070FA616848631C2000F0C5FE002110
:1042D0004FF40052FFF7B8FC61688864382000F0A2
:1042E000BBFE0121B0EE480AF0EE4D0AB0EE681AAE
:1042F000F0EE691A00F0ACFC6168C863382000F089
:10430000ABFE0121B0EE480AF0EE4D0AB0EE6C1A99
:10431000F0EE6A1A00F09CFC61680864542000F01A
:104320009BFE29460322B0EE6B0A00F001FBA06061
:10433000202000F091FEB0EE4E0AF0EE480AB0EEFA
:10434000481AF0EE491A00F011FDA168C8623C203D
:1043500000F082FEB0EE490AF0EE490AB0EE491ACA
:10436000F0EE4C1AB0EE4B2AF0EE4B2AB0EE4A3A81
:10437000F0EE4B3A00F016FAA16888633C2000F09A
:104380006BFEB0EE490AF0EE490AB0EE491AF0EEC3
:104390004C1AB0EE4F2AF0EE4F2AB0EE4A3AF0EE49
:1043A0004B3A00F0FFF9A16848631C2000F054FE6E
:1043B00000214FF40052FFF747FCA16888643820C1
:1043C00000F04AFE0121B0EE480AF0EE4D0AB0EED0
:1043D000681AF0EE691A00F03BFCA168C863382047
:1043E00000F03AFE0121B0EE480AF0EE4D0AB0EEC0
:1043F0006C1AF0EE6A1A00F02BFCA1680864BDECA0
:10440000108BB0BDA69B443B70B1E74282788170AF
:10441000C27070472DE9F04381B041F2947C41F2C3
:10442000C07EC2F2000CC2F2000E00218046CCF821
:104430002710CCF82310CEF82710CEF8231098F8C8
:10444000001046F6000246F200494FF40070C4F234
:104450000002C4F20009CCF81800CEF8180079B3B5
:1044600008F10C07002608E00EEB440080F821104C
:1044700080F822500136042E22D057F82600416BD6
:10448000C46C91ED030ABDEEC00A10EE105AB5F5EA
:104490007A7F03DB05F5487505E000BF15F57A7FE7
:1044A000B8BFA5F54875A9B2631E090A032BE1D868
:1044B000406C9042D8D04845DCD10CEB4400D5E7A5
:1044C00098F8020008B308F10400002708E00EEB9A
:1044D000410123BA1B0CA1F821300137022F14D05F
:1044E00050F82740636BE16C93ED030A4B1E032BDE
:1044F000BDEEC00AF1D8656C10EE104A9542E6D0C8
:104500004D45EAD10CEB4101E3E741F29476C2F26A
:1045100000063046FFF7A0FB41F2C075C2F200056D
:1045200007462846FFF798FB042F0CD131688A68AC
:1045300042F080028A608A6842F400428A608A6897
:1045400042F400028A6004280CD12868816841F096
:1045500080018160816841F400418160816841F49B
:10456000000181600021C6F82710C6F82310C5F8A5
:104570002710C5F8231098F8001040F2FF10B06122
:10458000A86119B9D8F81C0000F074FCD8F81C0018
:10459000642190ED060A41F29474BDEEC00A10EE5B
:1045A000100A484300BA000CC2F20004A5F8250026
:1045B0002046FFF751FB06462846FFF74DFB042E29
:1045C00004D0042811D001B0BDE8F08321688A68C6
:1045D00042F080028A608A6842F400428A608A68F7
:1045E00042F400028A600428EDD12868816841F015
:1045F00080018160816841F400418160816841F4FB
:104600000001816001B0BDE8F083000000F10C03FF
:104610000ECB806982ED000AC3ED000A81ED001A1D
:10462000C0ED001A70470000B0B5044600780028BD
:1046300008BFB0BD032500BF54F8250000F030F9D5
:104640000135072DF8D12046FFF71AFBB0BD000059
:10465000B0B58178022938BFB0BD041D002500BF68
:1046600054F8250000F0F4F80135022DF8D1B0BD62
:1046700010B50446FFF7D8FB2046FFF7ADFB10BD91
:1046800000210162016081628185704741F214005E
:10469000C4F20200016881F48041016070470000AB
:1046A00041F21400C4F20200016881F4004101608B
:1046B0007047000041F21400C4F20200016881F466
:1046C000005101607047000041F21400C4F2020082
:1046D000016881F4006101607047000041F2180038
:1046E0000029C4F202004FF400510CBF4180018048
:1046F0007047000010B590ED0A1AB0EEC02AB4EE73
:10470000412A0446F1EE10FA80ED070A04DA94ED2E
:10471000091A31EE001A01E09FED211A84ED091A01
:1047200094ED002A94ED0C1A22EE000AF1EE410AF3
:10473000FFF7CCF884ED040A94ED010A94ED092A00
:1047400094ED0D1A20EE020AF1EE410AFFF7BEF8D1
:1047500094ED072A94ED083A84ED050A94ED020AD7
:1047600094ED0E1A32EE432A20EE020AF1EE410ACF
:10477000FFF7ACF894ED042A94ED053A94ED0B1A8A
:1047800032EE032A84ED060A30EE020AF1EE410A07
:10479000FFF79CF8E06984ED030A206210BD00BFBA
:1047A0000000000000F1280180EC030AC1EC041AAB
:1047B00000214162C0E90311C0E90511C161C0EDEA
:1047C0000E3A704780B582B00346806D4FF0040CFE
:1047D00001605821009100210022CDF804C000F0B2
:1047E000B5F802B080BD000080B5806D00F080F9A2
:1047F00080BD0000B0B554210446FBF7AAFD4FF080
:10480000FF406065292000F027FC054600F08EF986
:104810002046A565B0BD000010B52DED028BB0EEB1
:10482000408A0229044605D0012906D061B994EDD9
:10483000050A05E084ED098A04E0206C00F0E0F947
:1048400020EE088A84ED018ABDEC028B10BD0000C9
:1048500010B50446C06A94ED030A00F00FFAE06A4E
:1048600094ED021A90ED000AA06B30EE410AFFF7BA
:1048700041FFE06AA16B90ED010A90ED071A91EDFE
:10488000032A21EE000A94ED011A606B32EE000A51
:1048900084ED000A30EE410AFFF72CFF10BD000046
:1048A00080B590ED000A90ED011A406B30EE410AA0
:1048B000FFF720FF80BD000010B50446806CFFF7B5
:1048C00095F9A06C90ED030A90ED041AB8EEC00AB9
:1048D00081EE000A9FED091A94ED0A2AE06B20EEA2
:1048E000010A80EE020A84ED040A00F05FF9E06B31
:1048F00000F086F984ED060A10BD00BF0000B44345
:1049000010B590ED0A1A044680EE010A9FED071AD1
:10491000006C20EE010A84ED050A00F047F9206CD6
:1049200000F06EF984ED070A10BD00BF0000704270
:1049300010B50446416480ED0A0A0020C4E9132042
:1049400020462821FBF705FD204610BD2DE9F04744
:10495000056844F6FF74C4F20004DDE908EC46F291
:104960001008A54248F20004C4F20208C2F2200472
:1049700020DC44F20046C4F20006B54239D044F6C9
:104980000004C4F20004A5423ED044F60044C4F240
:104990000004A54263D148F2200441F2661508F1F3
:1049A000300608F16009C2F200044FF4FA77C2F24F
:1049B00000054CE045F20006C4F20006B54204F1E1
:1049C000FC6A30D041F20006C4F20106B54234D090
:1049D00041F20046C4F20106B54240D141F24E55C3
:1049E00008F5836608F592694FF4FA77C2F200057C
:1049F0002DE040F67E5508F1780608F190094FF455
:104A0000FA77C2F2000522E048F2000440F672751F
:104A100008F1180608F14809C1F600044FF4FA77C6
:104A2000C2F2000513E041F25A3508F1A8094FF42B
:104A3000FA77C2F20005464608E040F64C5508F504
:104A4000866608F595693227C2F200055446C560AE
:104A50000025466047828582C0F81A9044628160D2
:104A60000282C0F81E30A0F822E080F828C0BDE81D
:104A7000F0870000B0B50446458A4068FCF7CAFAE2
:104A8000A18A228B638A11448AB2281A9A42E08250
:104A9000218304D3B2FBF3F202FB13112183218B98
:104AA00082B28A420CD9401A238A82B29A42A082E8
:104AB0001BD8E368A0681944FBF7DCFBA08AB0BDF3
:104AC0001844401A258A83B2AB42A0820DD8E5680B
:104AD000A06829449A1AFBF7CDFBA08AA368E28A52
:104AE000E1681844801AFBF7C5FBA08AB0BD00003E
:104AF00010B50446D0F81A00FCF788FA002818BF51
:104B000010BDD4F81A00616AFCF730F9D4F81A0025
:104B10000021FCF745F9D4F81A00D4F81E10C16042
:104B2000618C41600121FCF73BF910BD10B52921D2
:104B30000446FBF7ECFB204610BD000080B582B0B8
:104B40000346D0F80808B3F8D027016003F2E171FA
:104B50004FF0080C00922722CDF804C0FFF7F6FEB4
:104B600002B080BD80B5D0F80808FFF7C1FF80BD56
:104B7000B0B5044645F20C50A4F8D407002084F8E0
:104B8000D6074AF60020C0F25500C4F8DF074FF4FC
:104B90002A40A4F80608292000F05EFA0546FFF72F
:104BA000C5FF2046C4F80858B0BD000010B5044643
:104BB00090F8340030B1002084F83400A06984ED0E
:104BC000090AA06284ED050AD4E90901C4E90B01D0
:104BD000204600F005F8204600F016F810BD000051
:104BE0000178012918BF704790ED020A90ED0C1A68
:104BF000C16A31EE000AC16180ED080A7047000009
:104C000090ED090A704700000178012918BF70472C
:104C100090ED030A90ED082A90ED051A90ED073A01
:104C200032EE000A22EE000A31EE431A20EE011A9B
:104C300033EE011AB7EE003A80ED040A33EE400A73
:104C400022EE000A80ED091A80ED0A0A7047000082
:104C500001700021C0ED060A80ED010A80ED021A04
:104C60000161C0E90711C0E90911C0E90B11012177
:104C700080F83410C0ED031A7047000010B52DED18
:104C80000A8B90ED001A90ED012A90ED044A80ED18
:104C9000060A90ED033A31EE400A24EE021A30EE95
:104CA000018AB2EE001A23EE04AA23EE011AB0EE36
:104CB000C8CA80ED020A2AEE0A0A21EE0C1A30EE6A
:104CC000019AB0EE490A044624EE0ABA03F048F904
:104CD000B4EE400AF1EE10FA42D694ED019AB4EE29
:104CE0004BCAF1EE10FA0CDD30EE4ABAB0EE480ACB
:104CF000FEF7D6FD2BEE000AB6EE001A20EE010AF2
:104D000003E094ED040A88EE000A39EE000AB0EEE2
:104D1000C01A94ED032AB4EE4A1AF1EE10FAB1EE7D
:104D2000428A04DDFEF7BCFD20EE080A03E020EE17
:104D3000080A80EE0A0A94ED011A94ED052A94ED12
:104D4000003A22EE014A20EE020A33EE043A31EE36
:104D5000000A84ED003A84ED010ABDEC0A8B10BD17
:104D6000B0EE490A03F0FCF8B7E7000000F10C01CF
:104D700081EC030A00218161C0E900118160C0ED6E
:104D8000071A704780B582B0D0F8742100F5BC7363
:104D9000116000F5F47170204FF0020C0090104685
:104DA000FA22CDF804C0FFF7D1FD02B080BD0000AB
:104DB00080B5D0F87401FFF79BFE80BDB0B5044606
:104DC000992046F2A57184F8720004F5BC70C4F80D
:104DD00078110521FEF7A6FA40F20730A4F87D010C
:104DE00000204FF00111C4F8E202C4F8E602A4F872
:104DF000EA02C4E9BB110121A4F8F412C4E90000DD
:104E0000C4E90200C4E90400C4E90600A086C4E9BC
:104E10000800C4E90A002063C4F83600C4F83A0068
:104E2000C4F83E00C4F84200C4F84600C4F84A0082
:104E3000C4F84D0004F15100212104F17305FBF782
:104E400066FA28462621FBF762FA04F199007121DF
:104E5000FBF75DFA04F585706721FBF758FA292006
:104E600000F0FAF80546FFF761FE2046C4F87451D9
:104E7000B0BD000090ED010A9FED0E1AB4EE410A9C
:104E8000F1EE10FA11DDB3EE0B1AB4EE410AF1EEB9
:104E900010FA04DC90F85110012918BF7047012165
:104EA00080F85110002181617047002180F8511075
:104EB000704700BF0000D44110B52DED028B9FED6F
:104EC000121A90ED032A20EE010A82EE008A0446AF
:104ED00018EE100A04F054F89FED090BB5EE408A65
:104EE00052EC103BF1EE10FA1CBF0A46034642ECAE
:104EF000103B84ED100BBDEC028B10BD00BF00BF5A
:104F00002D431CEBE2361A3F3333733F90ED010A19
:104F10009FED211A0021B4EE410AF1EE10FA017062
:104F200013DA9FED1E1AB4EE410AF1EE10FA02DD1B
:104F300090F8341061B3816B4A1C3229826306DB1E
:104F4000012180F83410017001E080F834109FEDE9
:104F5000131AB4EE410AF1EE10FA0FDAB2EE001AAB
:104F6000B4EE410AF1EE10FA02DD90F8351041B1CD
:104F7000012180F835100221017002E0002180F843
:104F800035100178002918BF012180F83C107047C6
:104F900000218163DBE700BF66669E4133336341D6
:104FA0009FED1C2A31EE403A23EE022AB4EE410A6C
:104FB00030EE822AF1EE10FAC0ED090AC8BFF0EE19
:104FC000420A80ED070A9FED140AC0ED080AF4EECC
:104FD000400AF1EE10FA80ED0A1A01DA012107E029
:104FE0009FED0E0AF4EE400AF1EE10FA02DB00210A
:104FF00080F82C1090F82C10B1EE040ABAEE002ABA
:10500000002908BFB0EE402A32EE010A80ED060A00
:10501000704700BF6F12833A0000344200007042B4
:105020000021C4F2C821002281610021C3F6F07280
:1050300080F82C10016381638186A0F85010C0E9CC
:105040001012C0E912124160704741F29070C2F232
:10505000000000687047000010B50446002808BF33
:10506000012400BF2046FBF7B1F9002818BF10BD8E
:10507000FFF7EBFF08B18047F4E7002010BD000008
:1050800080B540F27800C2F20000FFF771FD80BDEC
:1050900080B540F6E040C2F20000FFF7ABFB80BDF8
:1050A00080B540F68800C2F20000FFF787FE80BDA1
:1050B00080B540F60040C2F20000FFF7E1FA80BD83
:1050C00080B54FF44070FCF7BBF8FCF709FAFBF72A
:1050D000F3FFFCF74BFAFCF71BFCFCF795FCFCF725
:1050E0003DFDFCF7B3FAFCF75DFBFCF7E5FD642042
:1050F00000F008F8FBF7FCFAFBF758FB642000F01F
:1051000001F880BD10B5002808BF10BD044600BFDF
:105110004FF47A7000F004F8013CF9D110BD0000A2
:1051200080B54EF21801CEF20001A82251F804CC4D
:1051300000FB02FE086800230A689042FCD003448A
:105140009B1A904298BF63447345104628BF80BDA8
:10515000F2E7000080B5FFF7B3FFFCF787FF002000
:1051600080BD0000F0B581B00D4644F2907141F26F
:10517000F076C2F20101C2F200060F6831680446FF
:10518000081D00F0F9FC10B1601C0FD019E0306868
:1051900044F29C62C06AC2F201020121136801FA62
:1051A00000F023EA00001060601C0AD14DB13068A5
:1051B000011D44F26870C2F2010000F031FD01B03F
:1051C000F0BD3068E41944600AD341F60000C2F231
:1051D000000000683168043100F004FD01B0F0BD4A
:1051E00041F2F870C2F2000000683168043100F04A
:1051F000F9FC44F20070C2F2010001688C4238BF31
:10520000046001B0F0BD000070B5044600F020FD60
:1052100044F28860C2F20100016841F2F075013188
:105220000160C2F20005296844F25C76C2F2010610
:1052300041B1306860B92868E16AC06A884298BFA5
:105240002C6005E02C600068012801D100F0AEF967
:1052500044F29860C2F20100016844F29C6201319C
:1052600001602164E06AC2F20102012113688140F9
:105270001943116041F6080100EB8000C2F2000101
:1052800001EB8000211D00F0CBFC00F0F1FC306848
:1052900080B12868E16AC06A884228BF70BD4EF6B6
:1052A0000450CEF200004FF080510160BFF34F8FE9
:1052B000BFF36F8F70BD000070B500F0C9FC44F201
:1052C0009476C2F20106306810B100F0D1FC70BDD6
:1052D00044F2A064C2F20104204600F073FC44F2E0
:1052E000B465C2F20105284600F06CFC41F2F4708E
:1052F000C2F20000046041F60400C2F20000056042
:105300000A201021002200F05DFF00283060DCD070
:1053100002A100F001FD00F0ABFC70BD546D7251B4
:1053200000000000F0B581B044F28C65C2F20105C6
:10533000286828B344F27C7644F28867C2F20106FA
:10534000C2F2010702E000BF2868C8B100F00CFEFD
:10535000346801F0E7FA002CF6D000F079FCF06830
:10536000C468201D00F008FC3868013838602868DF
:105370000138286000F07CFC204600F055F8E3E797
:1053800001B0F0BD80B5026C002A08BF80BDC368C3
:10539000D0F804C01344C360634524BF0368C360EE
:1053A000C36808461946FAF765FF80BD70B5866B7D
:1053B000036C0446E3B115461AB3E0681A46FAF7DF
:1053C00059FFE168206C2268091A9142E16003D21A
:1053D000616840420844E060A81EB0FA80F04009CD
:1053E0003146002E18BF01210840361A002516E06C
:1053F0002068002598B9606801F0E4F96560054609
:105400000DE0A0681A46FAF735FF216CD4E90120B7
:1054100000250844A060904224BF2068A060711C51
:105420002846A16370BD000010B50446006B00F073
:105430002DFC204600F02AFC10BD000041F2F47162
:10544000C2F2000109680A68B2FA82F35B090360DC
:10545000002A0EBF0020C8680068704741F6882007
:10546000C2F20000C21D22F0070210F0070CA0EBF0
:10547000020318BF104644F26072C2F2010200211A
:10548000C2E900014FF49632BCF1000F18BF03F5DA
:1054900096320244083A41F2FC7322F00702C2F24B
:1054A00000031A60C2E90011111A1A68C0E900214C
:1054B00044F2FC60C2F20100016044F2F460C2F206
:1054C0000100016044F2C860C2F2010001210170D4
:1054D0007047000041F608044EF60455C2F200047D
:1054E000CEF200054FF08056FFF71CFF206802281F
:1054F000FAD32E60BFF34F8FBFF36F8FF4E7000036
:10550000B0B5049D002914BF2A602D60C5E90F01C4
:10551000284601211C4600F02FFF85F84C40B0BD05
:105520002DE9F0470A9C8246206B16460F46DDE9BE
:1055300008599100A5229846FAF7E1FE206B00EB8E
:105540008600043820F00706002000BF395C2218CE
:1055500082F83410395C19B1092800F10100F5D343
:105560000027201D84F83D701F2D28BF1F25E562F0
:10557000C4E9125700F032FB04F1180000F02EFBD2
:10558000C5F12000A0613046514642462461646264
:10559000276584F8547000F0DBFAB9F1000F206041
:1055A00018BFC9F80040BDE8F0870000B0B541F66B
:1055B00008050024C2F20005281900F003FB14348A
:1055C000B4F5207FF8D144F2CC64C2F20104204645
:1055D00000F0F8FA44F2E065C2F20105284600F056
:1055E000F1FA44F20870C2F2010000F0EBFA44F262
:1055F0007C70C2F2010000F0E5FA44F26870C2F279
:10560000010000F0DFFA41F2F870C2F2000004601D
:1056100041F60000C2F200000560B0BD80B544F262
:105620006072C2F2010200BF114612688242FBD3CF
:10563000D1F804C001EB0C03834203D140686044FD
:1056400048600846D0F804E000EB0E03934201D016
:10565000026010E041F2FC73C2F20003D3F800C014
:10566000624506D00B6852681B687244C0E900327C
:1056700001E0C0F800C0814218BF086080BD000092
:1056800080B58C46014641F804CF9445006108D9A5
:105690009A4201D29C4511D241F2F470C2F200004C
:1056A00007E08069D21A824208D241F60400C2F2B1
:1056B0000000006800F096FA002080BD012080BD47
:1056C00010B5044600F0C4FAA06BB0FA80F04409AB
:1056D00000F0CEFA204610BD10B5044600F0B8FA2E
:1056E000A06BE16B401AB0FA80F0440900F0C0FAF8
:1056F000204610BD08480068006880F308884FF015
:10570000000080F3148862B661B6BFF34F8FBFF319
:105710006F8F00DF00BF00BF08ED00E070B582B002
:1057200041F2F472C2F2000212680546D2680E46D7
:10573000D468201D00F020FAE06901280FD1A0698B
:105740003246411920462B46FFF79AFF38B1002612
:10575000204600212A460023009601F089F9616A5B
:105760002046884702B070BD2DE9F04387B044F26F
:105770009477C2F20107386803A9002200234FF092
:10578000000800F039FD002851D002AC4FF00109AB
:1057900003AD10E010F4047F43D004981346B061C9
:1057A00081183046FFF76CFF386829460022002335
:1057B00000F022FDD8B30398B0F1FF3F03DCDDE930
:1057C00004200699904703980028EDD4059E70693F
:1057D00010B1301D00F0D0F9204600F07FF8039999
:1057E0000929E1D8024609FA01F010F0C70FD1D01B
:1057F000049BB069C1183046FFF742FF0028D3D0A0
:10580000716A30468847F0690128CDD10498B169A2
:1058100000230A1830460021CDF8008001F028F955
:10582000C2E70529C0D1304600F030FABCE707B026
:10583000BDE8F08370B582B00E46044600F094FBDC
:1058400001A800F04BF8019919B101F06BF802B012
:1058500070BD05464EB9A54207D301F063F8204656
:105860002946FFF75BFF02B070BD4EB141F6040060
:10587000C2F2000000680068B0FA80F0420900E05F
:10588000002244F29470C2F201000068611B00F033
:1058900057FA01F047F80028D9D14EF60450CEF25D
:1058A00000004FF080510160BFF34F8FBFF36F8F47
:1058B00002B070BD41F2F870C2F2000001680968E0
:1058C00021B10068C068C068406801E04FF0FF3057
:1058D00044F20071C2F201010860704770B50446DD
:1058E00000F0C4FE41F2EC76C2F2000631680546D3
:1058F000884203D200F008F8012000E00020206078
:105900002846356070BD00002DE9F04182B041F2BB
:10591000F477C2F200073868016831B34FF000082D
:105920000BE000BF2046002132460023CDF8008066
:1059300001F09EF838680168B9B1C068C4680668AB
:10594000251D284600F018F9616A20468847E0695D
:105950000128EFD1A0693044B042E3D960603868D3
:105960002946246100F03EF9E4E741F60401C2F261
:1059700000010A6808603A6002B0BDE8F0810000EA
:1059800081B0002000904FF0500080F31188BFF3E9
:105990006F8FBFF34F8F00BF00980028FCD001B07D
:1059A0007047000000EA010022B1401AB0FA80F00E
:1059B00040097047002818BF0120704782B001AC31
:1059C0002046FFF73BFD0199FFF734FFFFF7CCFEC0
:1059D000F6E70000F0B581B0044600F039F994F91B
:1059E0004560012E0FDB04F1240500BF286850B18B
:1059F000284600F027FF002818BF00F0DDF970B23C
:105A0000013E0128F2DCFF2684F8456000F030F901
:105A100000F01EF994F94470012F0EDB04F110051B
:105A2000286850B1284600F00DFF002818BF00F08C
:105A3000C3F978B2013F0128F2DC84F8446000F039
:105A400017F901B0F0BD00002DE9F047044600F061
:105A50008BFA41F2FC7AC2F2000ADAF80000002860
:105A600008BFFFF7FBFC44F2C860C2F201000578F2
:105A7000002D18BF4FF00045254201D0002455E00D
:105A800044B104F1080010F007011ABF601A00F1D8
:105A90001004044644F2F468C2F20108D8F80090F9
:105AA000601E484517D244F26070C2F201000668D9
:105AB000374657F8041FA14213D2306868B100BFBF
:105AC00030463668374657F8041FA14209D232687B
:105AD000002AF5D105E0002428E044F26070C2F20B
